:100000000C94CB030C9412040C9412040C94120460
:100010000C9412040C9412040C9412040C94120408
:100020000C9412040C9412040C947C210C9438212E
:100030000C9481280C9412040C9412040C94120455
:100040000C9412040C9412040C9412040C941204D8
:100050000C94A8280C945D280C9412040C9412049F
:100060000C9412040C9412040C9412040C941204B8
:100070000C9412040C9412040C9412040C941204A8
:100080000C9412040C9412040C9412040C94120498
:100090000C9412040C9412040C9412040C94120488
:1000A0000C9412040C9412040C941204050109021D
:1000B000A10185020901A100050919012905150001
:1000C00025019505750181029501750381010501E1
:1000D000093009311581257F950275088106093897
:1000E0001581257F950175088106050C0A380215D2
:1000F00081257F950175088106C0C005010980A191
:1001000001850319012AB700150126B7009501756D
:10011000108100C0050C0901A101850419012AA064
:1001200002150126A002950175108100C00660FF2E
:100130000961A1010962150026FF0095207508815B
:10014000020963150026FF00952075089102C0057D
:10015000010906A101050719E029E7150025019508
:1001600008750181029501750881010507190029AB
:10017000FF150026FF009506750881000508190186
:100180002905950575019102950175039101C0003E
:100190000101010101010101010202020202020248
:1001A000020203030303030303030404040404041B
:1001B00004050505050506060606060707070707E1
:1001C00008080808090909090A0A0A0B0B0B0C0C94
:1001D0000C0D0D0D0E0E0E0F0F0F10101111111230
:1001E0001213131414151516161717181819191AAF
:1001F0001A1B1B1C1D1D1E1E1F2020212222232412
:1002000024252626272829292A2B2C2D2D2E2F3050
:10021000313232333435363738393A3B3C3D3E3F64
:10022000404142434445464748494A4C4D4E4F5051
:10023000515354555658595A5B5D5E5F616264650F
:100240006668696B6C6D6F7072737577787A7B7D99
:100250007E8082838587888A8C8E8F9193959698ED
:100260009A9C9EA0A2A3A5A7A9ABADAFB1B3B5B709
:10027000BABCBEC0C2C4C6C9CBCDCFD1D4D6D8DBE0
:10028000DDDFE2E4E7E9EBEEF0F3F5F8FAFDFFFF7E
:10029000AA7F55402223252628292A2C2D2F3032AB
:1002A000333536383A3B3D3E4042434547494A4C58
:1002B0004E5051535557595A5C5E60626466686986
:1002C0006B6D6F71737577797B7D7F81838587898E
:1002D0008A8C8E90929496989A9C9E9FA1A3A5A793
:1002E000A8AAACAEAFB1B3B4B6B8B9BBBCBEBFC1BF
:1002F000C2C3C5C6C7C9CACBCCCDCED0D1D2D2D34A
:10030000D4D5D6D7D7D8D9D9DADADBDBDBDCDCDC5D
:10031000DCDCDDDDDDDDDCDCDCDCDCDBDBDBDADA20
:10032000D9D9D8D7D7D6D5D4D3D2D2D1D0CECDCC97
:10033000CBCAC9C7C6C5C3C2C1BFBEBCBBB9B8B6AC
:10034000B4B3B1AFAEACAAA8A7A5A3A19F9E9C9A37
:1003500098969492908E8C8A89878583817F7D7B05
:1003600079777573716F6D6B6968666462605E5CE6
:100370005A5957555351504E4C4A494745434240AC
:100380003E3D3B3A3836353332302F2D2C2A292842
:1003900026252322000000000000000000000001CC
:1003A000010203040506080A0C0F1114181C20246E
:1003B000292E33393F464C535B626A7179818A92A8
:1003C0009AA2AAB2B9C1C8CFD5DCE1E7EBF0F4F745
:1003D000FAFCFDFEFFFEFDFCFAF7F4F0EBE7E1DCD2
:1003E000D5CFC8C1B9B2AAA29A928A8179716A623C
:1003F0005B534C463F39332E2924201C1814110F0F
:100400000C0A0806050403020101000000000000B8
:100410000000000029001E001F0020002100220013
:10042000230024002500260027002D002E002A008E
:100430002B0014001A000800150017001C001800FB
:100440000C00120013002F003000310039000400AE
:100450001600070009000A000B000D000E000F0037
:100460003300340000002800E10000001D001B00E4
:100470000600190005001100100036003700380092
:10048000E5000000E000E300E200000000000000E2
:100490002C00000000000000E600E7000151E4002D
:1004A0000100010001000100010001000100010044
:1004B0000100010001000100010001000100010034
:1004C0000100010001000100010001000100010024
:1004D0000100010001000100010001000100010014
:1004E0000100010001000100010001000100010004
:1004F00000000100010000000100010001000100F6
:1005000001000100010001000100010001000000E4
:1005100001000100010000000000000001000000D7
:1005200000000000010001000100010001000100C5
:1005300001000100010001000100010001000100B3
:1005400001000100010001000100010001000100A3
:100550000100010001000100010001000100010093
:100560000100010001000100010001000100010083
:100570000100010001000100010001000000010074
:100580000100000001000100010001000100010064
:100590000100010001000100010000000100010054
:1005A0000100000000000000010000000000000049
:1005B0000100010001000100010001000100010033
:1005C0000100010001000100010001000100010023
:1005D0000100010001000100010001000100010013
:1005E0000100010001000100010001000100010003
:1005F00001000100010001000100010001000100F3
:1006000001000100010001000000010001000000E4
:1006100001000100010001000100010001000100D2
:1006200001000100010000000100010001000000C4
:1006300000000000010000000000000001000100B7
:1006400001000100000000000000000000000000A8
:1006500000000000000000007E0F00D4FFFFFFC775
:100660000000007800000000000000002A2B280095
:100670000000000000000000000000000000002951
:10068000000000002C1E3420212224342627252E91
:10069000362D3738271E1F202122232425263333C9
:1006A000362E37381F0405060708090A0B0C0D0EF5
:1006B0000F101112131415161718191A1B1C1D2FC1
:1006C0003130232D350405060708090A0B0C0D0EE1
:1006D0000F101112131415161718191A1B1C1D2FA1
:1006E0003130354C32190A00047F3F1F64321464E4
:1006F0003214783C1E1E140A0509025B0003010037
:10070000A0FA090400000103010100092111010000
:10071000012240000705810308000A0904010002C4
:1007200003000000092111010001222200070582B7
:100730000320000107050303200001090402000152
:100740000300000009211101000122810007058436
:100750000320000A1201100100000008E1AC495416
:1007600001000102000110037400690074006100BF
:100770006E00360030000000180341006300650081
:100780006B006500790062006F0061007200640018
:1007900000000403090411241FBECFEFDAE0DEBF1E
:1007A000CDBF04B603FE27C08091B5029091B6027A
:1007B000A091B702B091B8028730904BA740B04BE0
:1007C000D1F41092B5021092B6021092B7021092B4
:1007D000B80214BE84B7877F84BF0FB6F894A8957B
:1007E00080916000886180936000109260000FBE6D
:1007F000E0E0F8E3099522E0ACE9B1E001C01D9228
:10080000A53BB207E1F711E0A0E0B1E0E6ECF5E5C9
:1008100002C005900D92AC39B107D9F70E946A2247
:100820000C948F2A0C940000E8EDF0E080818E7F1C
:1008300080831092E2001092DA001092E100A0EEA4
:10084000B0E08C9181608C9380818F77808319BC1C
:10085000A7EDB0E08C918E7F8C9380818F7E80831A
:100860001092900208952091E4003091E50095E601
:10087000A9012091EC00822F817020FF06C0809199
:10088000E80080FF06C080E008952091E80022FD86
:100890001AC08091AD02882389F0853089F080915B
:1008A000EB0085FD0FC02091E4003091E500421778
:1008B0005307F9F29150E1F684E0089582E008953B
:1008C00083E0089581E00895EF92FF920F931F93C4
:1008D000CF937C018B010E943304C82F811117C074
:1008E0008091E80085FD0BC08091E8008E778093B1
:1008F000E8000E943304882399F3C82F08C0F70149
:1009000081917F018093F1000150110949F78C2FEB
:10091000CF911F910F91FF90EF900895CF93FC011D
:100920008091AD02843001F5C091E900CF70209133
:10093000EC00922F917020FD90E8C92B82E080930B
:10094000E9008091E80080FF0CC050E040E060E2E8
:1009500070E0CF010E9464048091E8008E7780935C
:10096000E800CF70C093E900CF9108958091A5026F
:1009700087FF13C08091E80082FF06C08091E800E5
:100980008B778093E80004C08091AD028111F2CF93
:1009900008958091AD028823D9F38091E80080FF0B
:1009A000F8CF8091E8008E77ECCF982F9093E900F4
:1009B000242F762F50E0891731F07091EC002091B0
:1009C000ED005091F00021FD07C09F5F973071F757
:1009D0008093E90081E008953091EB003E7F3093F1
:1009E000EB003091ED003D7F3093ED003091EB0056
:1009F00031603093EB007093EC002093ED00509346
:100A0000F0002091EE0027FDE0CF80E00895CF9226
:100A1000DF92EF92FF920F931F93CF93DF93C8ED76
:100A2000D0E088818F7E8883E7EDF0E0808181606F
:100A3000808384E082BF81E08093900288818E7FF2
:100A4000888302EE10E0F80110821092DA0081EE45
:100A5000C82ED12CF601108288818F7788838881F7
:100A60008068888388818F7D888319BC1092AD024D
:100A70001092A4021092A3021092A20290EEE92E0C
:100A8000F12CF70180818B7F80838881816088834E
:100A900042E060E080E00E94D504F60180818E7F14
:100AA0008083F80180818160808380818860808379
:100AB000F70180818E7F8083888180618883DF91C8
:100AC000CF911F910F91FF90EF90DF90CF900895FD
:100AD000FC018091AB029091AC0286179707A0F0C1
:100AE0006115710529F49091E8009E779093E800D4
:100AF00090E06115710551F4911108C08091E800F2
:100B000082FF34C080E00895BC01F2CF8091AD0235
:100B10008823C1F18530C1F18091E80083FD30C0A8
:100B20008091E80082FDEACF8091E80080FFE1CF6C
:100B30008091F3002091F200382F6115710519F0B2
:100B40002830310558F091E02830310509F090E067
:100B50002091E8002E772093E800CBCF81918093FD
:100B6000F100615071092F5F3F4FE7CF8091AD02D7
:100B7000882341F0853041F08091E80083FFBECFAB
:100B800081E0089582E0089583E0089508958091BA
:100B90009902089590916F02803F59F480917002FC
:100BA00087FF0DC01092700291110BC010926A0263
:100BB00008C0813F81F48091700218169CF399233C
:100BC00081F08091710290917202892B09F064C0CA
:100BD000109267020895823F49F497FFF0CF109278
:100BE0006F02809170028111ECCFE0CF833F19F446
:100BF0001916ACF3E4CF20917102893F29F4121643
:100C0000F4F610927102DBCF8A3F19F427FFD7CF99
:100C1000F8CF209172028B3F29F427FFD0CF10929A
:100C20007202CDCF8C3F19F41216CCF3C8CF843F9B
:100C300031F480916E028E7F80936E02C0CF853F2B
:100C400021F480916E028D7FF7CF863F21F4809151
:100C50006E028B7FF1CF873F21F480916E02877FF8
:100C6000EBCF883F21F480916E028F7EE5CF8D3FE0
:100C700031F480914D028E7F80934D02A0CF8E3F44
:100C800021F480914D028D7FF7CF8F3F09F097CFF0
:100C900080914D028B7FF0CF089580914D0280FDB1
:100CA00016C081FD16C082FD16C0809167028823A0
:100CB000A1F0883280F428E0829FC001112468E20C
:100CC00070E00E944B29862F672B39F0089582E04F
:100CD000089584E0089588E0089581E00895809162
:100CE0004D0280FD14C081FD14C082FD16C08091AC
:100CF0006A02882381F0843180F422E3829FC0015C
:100D0000112464E170E00E944B29862F08958CE045
:100D1000089589E1089585E0089582E30895803F6C
:100D200031F40E946F068195809370020895813F8F
:100D300019F40E946F06F8CF823F31F40E946F06CB
:100D4000819580936F020895833F19F40E946F0686
:100D5000F8CF893F29F40E944D06809371020895CF
:100D60008A3F21F40E944D068195F7CF8B3F31F4E5
:100D70000E944D0681958093720208958C3F19F46C
:100D80000E944D06F8CF843F31F480916E0281605D
:100D900080936E020895853F21F480916E028260F7
:100DA000F7CF863F21F480916E028460F1CF873FB8
:100DB00021F480916E028860EBCF883F21F480910E
:100DC0006E028061E5CF8D3F31F480914D028160EC
:100DD00080934D0208958E3F21F480914D028260F0
:100DE000F7CF8F3FB9F780914D028460F1CF9C011E
:100DF0004FB7F89480918C0290918D02A0918E0251
:100E0000B0918F024FBF821B930B08952FB7F894B8
:100E100080918C0290918D02A0918E02B0918F02F0
:100E20002FBF08950E9406079C0190916F02809148
:100E30007002982B21F030936C0220936B029091FA
:100E4000710280917202982B21F0309369022093F5
:100E50006802E0915E02F0915F02309749F082E013
:100E600080936D020480F581E02D8DE692E0099477
:100E7000089580914802811110924802089580914E
:100E8000470290914602892B90914502892B8093CD
:100E90009C0190914802992391F0892B80939C01A9
:100EA00020E08EE991E0FC013191CF0131112F5FFB
:100EB000F1E0843A9F07B9F721110E943907E091C8
:100EC0005E02F0915F02309731F00280F381E02DF5
:100ED0008CE991E009940895EEE9F1E0919189138C
:100EE00003C0DF0111971C9291E0E43AF907B1F7D2
:100EF0000895AEE9B1E0EFEF90E02D91821751F047
:100F0000EF3F19F4211101C0E92F9F5F9630A9F737
:100F1000EF3F09F408950E2E000CFF0BE456FE4F30
:100F2000828308952EE0929F800D1124982F977050
:100F300086958695869525E0829FF0011124E95ECD
:100F4000FD4F50E040E080E0219130E0092E02C0EA
:100F5000369527950A94E2F721703327042E01C0B5
:100F6000220F0A94EAF7822B4F5F5F4F45305105FD
:100F700059F708952EE0929F800D1124982F9770B5
:100F800041E001C0440F9A95EAF7869586958695CB
:100F900095E0899FF0011124E95EFD4F90E080E02B
:100FA00070E05191DF0111979B01082E02C0369528
:100FB00027950A94E2F721702195252724232527D8
:100FC0002C9301968530910561F708958091160262
:100FD0009091E501981301C008958F5F8770FACF53
:100FE000882341F08095909147028923809347029E
:100FF0000C943F070895882339F090914702982B6D
:10100000909347020C943F0708952091DC013091A2
:10101000DD012817390771F09093DD018093DC0121
:10102000E0915E02F0915F02309721F00084F1853B
:10103000E02D099408952091DA013091DB01281701
:10104000390771F09093DB018093DA01E0915E0241
:10105000F0915F02309721F00680F781E02D09942E
:10106000089510924602109245020E943F0786E0C2
:10107000EDE6F2E0DF011D928A95E9F710926A022F
:101080001092670210924D020E94120790E080E0D9
:101090000E941B0890E080E00C9405086093B10268
:1010A0007093B2028093B3029093B4020C9431080F
:1010B0000F931F936091B1027091B2028091B302BD
:1010C0009091B4028B019C010670112722273327CF
:1010D000063011052105310529F468601F910F9133
:1010E0000C944E08677FFACF0F931F9341E050E0B6
:1010F00060E070E004C0440F551F661F771F8A959B
:10110000D2F7CB01BA0160957095809590950091CA
:10111000B1021091B2022091B3023091B402602367
:101120007123822393231F910F910C944E08909169
:1011300044028095892380934402282F277071F4FC
:10114000282F082E000C330B9217130639F08595C3
:10115000859585950E9474081092440208950F9316
:101160001F9341E050E060E070E004C0440F551F61
:10117000661F771F8A95D2F78091B1029091B202D3
:10118000A091B302B091B4028A019B01082B192BE4
:101190002A2B3B2BC901B8011F910F910C944E08CB
:1011A0006093490270934A0280934B0290934C02E1
:1011B0000C943108E0915E02F0915F02309721F0CB
:1011C0000190F081E02D099480E00895882309F4CE
:1011D00059C0823871F40E94DA0881FF53C089E354
:1011E0000E9479070E943F0789E30E946C070C94D4
:1011F0003F07833859F40E94DA0880FF43C083E533
:101200000E9479070E943F0783E5EFCF843859F4A5
:101210000E94DA0882FF36C087E40E9479070E94A4
:101220003F0787E4E2CF9CEF980F913AF0F290E20B
:10123000980F983088F4877021E030E0A90102C04F
:10124000440F551F8A95E2F7CA0180959091470295
:10125000892380934702CBCF9BE5980F933020F4EE
:1012600090E080E00C941B0898E5980F973120F4EB
:1012700090E080E00C940508803F20F00E94CA05B1
:101280000C9412070895CF92DF92EF92FF928C3761
:1012900024E1920750F469E070E00E943729CB0105
:1012A000FF90EF90DF90CF900895B0E0A0E0BC01F8
:1012B000CD016A50774D8F4F9F4F982F872F762FF4
:1012C000662725EF38E241E050E00E945E2A69017E
:1012D0007A01CA01B9010E940D299B01AC01C70125
:1012E000B6010E940D29672F782F892F9927611544
:1012F000710521E08207910591F66FEF7FEFCFCF67
:101300008430E0F481111BC090918000977F90930E
:1013100080002F98282F30E0AFEFBFEF0E94802A87
:1013200023E030E040E050E00E945E2AC9010E94C4
:10133000430990938D0080938C00089583E09091F1
:101340008000986090938000E5CF282F220F220F15
:10135000220F90917F029770922B90937F02987F3B
:1013600021E009F420E090917F0220FB90F9909316
:101370007F020C948009FA01811101C0FB010994DC
:1013800080919102982F9E7F29F4817082608093D2
:10139000910208958635E8F381708465F8CFAF92A5
:1013A000BF92DF92EF92FF920F931F93CF93DF9341
:1013B000082F162FE901E42FF0E0E157FE4F6111ED
:1013C00010C0E4915E2F4E2F4983E8835A83DF914A
:1013D000CF911F910F91FF90EF90DF90BF90AF9052
:1013E0000895E62EF12C4491D42EE42FF0E026E06F
:1013F000829FC00111242FEF30E0B9010E943729EC
:10140000802F90E0880F991F55E5569FD001579F78
:10141000B00D11248A1B9B0B982F990F890F59012E
:10142000AE18BF08AE9ED001AF9EB00DBE9EB00DEF
:1014300011245B2F189F80011124012F11275901BE
:10144000A01AB10AAE9E8001AF9E100DBE9E100D77
:1014500011245901A81AB108AE9CC001AF9C900D8F
:10146000BE9C900D1124892F9927281B390B2E9F84
:10147000C0012F9F900D3E9F900D1124E92F6230E7
:101480007105A1F050F46115710509F49DCF61302B
:10149000710581F0EB2F512F97CF6430710569F002
:1014A00080F06630710509F48FCFF4CFE42F4B2F15
:1014B000592F8ACFE42F412F87CFEB2F542F492F5D
:1014C00083CF4B2F5D2DE12F7FCFF894E82FE2954E
:1014D000EF70F0E031A1282F2F7081E090E001C083
:1014E000880F2A95EAF7982F9095932391A392A1BC
:1014F000892B82A37894089590915B0292FF06C095
:10150000282F28712830F9F4877F846093FF06C064
:10151000282F28712831F1F4877E846120915C02A4
:1015200020FF06C0382F38713830D9F4877F8160AA
:1015300021FF06C0282F28712831D1F4877E8161D0
:1015400094FD877E0895282F24712430F9F68B7F2F
:101550008860DCCF282F2471243101F78B7E8861CD
:10156000DDCF382F3171313019F78E7F8860E0CFB1
:10157000282F2171213121F78E7E8861E1CFCF9311
:10158000DF9300D00F92CDB7DEB79091AD029430CB
:1015900011F589837B836A839093E9008FEF9091A3
:1015A000E800815095FD06C095ED9A95F1F7000091
:1015B0008111F5CF8091E80085FF0DC050E040E03B
:1015C00063E070E0CE0101960E9464048091E8001F
:1015D0008E778093E8000F900F900F90DF91CF915E
:1015E0000895BC0184E00C94BF0ABC0183E00C9414
:1015F000BF0A9C0184E08093E9009FEF8091E8009E
:10160000915085FD06C085ED8A95F1F70000911196
:10161000F5CF8091E80085FF0CC050E040E066E027
:1016200070E0C9010E9464048091E8008E77809385
:10163000E8000895CF93DF93EC0181E08093E90007
:101640008FEF9091E800815095FD06C095ED9A9539
:10165000F1F700008111F5CF8091E80085FF14C0FB
:1016600050E040E068E070E0CE010E9464048091A8
:10167000E8008E778093E80088E0FE01AAE9B2E0F6
:1016800001900D928A95E1F7DF91CF91089581E065
:101690008093E00080E28093D8001092C9008FE12F
:1016A0009EE40197F1F700C0000087E090EBDC01B9
:1016B0008093B5029093B602A093B702B093B8029C
:1016C00088E19CE00FB6F894A895809360000FBE67
:1016D00090936000FFCFCF93C82F882309F490C068
:1016E0008238C1F40E94DA0881FD8AC089E30E9431
:1016F00079070E943F072FEF81EE94E02150804050
:101700009040E1F700C0000089E30E946C07CF9190
:101710000C943F078338A1F40E94DA0880FD70C062
:1017200083E50E9479070E943F072FEF81EE94E046
:10173000215080409040E1F700C0000083E5E5CFF4
:101740008438A1F40E94DA0882FD5AC087E40E941E
:1017500079070E943F072FEF81EE94E021508040EF
:101760009040E1F700C0000087E4CFCF8CEF8C0FF2
:10177000813A68F4EEE9F1E08191C817D9F121E0EE
:10178000E43AF207C9F78C2F0E947907C0CF80E2B4
:101790008C0F883068F4C77021E030E001C0220F60
:1017A000CA95EAF780914702822B80934702AFCF18
:1017B000EBE5EC0FE33040F4F0E0E85BFE4F8081B6
:1017C00090E0CF910C941B08E8E5EC0FE73150F462
:1017D000F0E0EE0FFF1FE55BFE4F80819181CF911E
:1017E0000C940508C03F60F08C2F0E948F06CF91AB
:1017F0000C9412078C2F0E946C070E943F07C3CFE6
:10180000CF910895CF93C82F0E946B0BC93349F431
:101810002FEF87EE93E0215080409040E1F700C029
:1018200000008C2FCF910C94E6080F931F93CF9359
:10183000DF93C62FD42F022FFC0182818823A1F0D1
:101840006093B0020E9406079093AF028093AE02AD
:10185000C77081E001C0880FCA95EAF7DF91CF9188
:101860001F910F910C94FB078091B002681335C053
:101870008091AE029091AF020E94F706883C9105DC
:1018800060F510E21D0FCD17B9F080E28C0F8830A3
:1018900040F4C77081E001C0880FCA95EAF70E9442
:1018A000F007183048F481E09D2F977001C0880F31
:1018B0009A95EAF70E94FB07802F0E94020C1830CD
:1018C00098F4D77081E001C0880FDA95EAF7DF91CC
:1018D000CF911F910F910C94F007C77081E001C068
:1018E000880FCA95EAF7F3CFDF91CF911F910F913F
:1018F00008958091910280FD0AC0EAEAF1E0118228
:1019000010821282339651E0EC3BF507C1F7509AF2
:101910003BB13E7F2BB121604FB7F8948AEA91E04A
:10192000FC015191CF0168E02BB9000000C057FFC6
:101930003BB9550F000000C000C000C03BB900C05B
:101940006A9591F7F1E08C3B9F0751F74FBF8FE508
:1019500094E00197F1F700C000000895EF92FF9224
:101960001F93CF93DF93EC018AEAE82E81E0F82EF3
:1019700010E08C8197014091940260919302810F55
:101980000E94CF09165D83E0E80EF11C1C3F89F729
:101990000E94790C9A818C8190FF08C08F5F8C83A4
:1019A000DF91CF911F91FF90EF9008958150F7CF75
:1019B000BF92CF92DF92EF92FF920F931F93CF933C
:1019C000DF93FC018281DD24DA9480FD02C0DD24F6
:1019D000D3940AEA11E0D0E0C0E026E0B22EF8018C
:1019E00011821082128294E0E92EF12CC12C809198
:1019F000A7018C0D87300CF43DC06B2D0E94292966
:101A0000892F082E000C990B8C179D0791F480915B
:101A100094028E9DA0018F9D500D112455954795E0
:101A200055954795980160919302809192020E948A
:101A3000CF09CD0CF1E0EF1AF108C9F621960D5F40
:101A40001F4FC630D10559F60E94790C8091A7012D
:101A500091E0D91215C0811111C085E08093A701D2
:101A6000DF91CF911F910F91FF90EF90DF90CF907A
:101A7000BF90089587FFC5CF8A5FC3CF8150EECF57
:101A800090E00196BE010E944B29E8CF0F931F936F
:101A9000CF93DF93CAEAD1E0FE0111821082128255
:101AA000339681E0EC3BF807C1F710E000E080914D
:101AB000A801082E000C990B081719078CF18091CA
:101AC0001001082E000C990B801791074CF19E0114
:101AD0004091940260919302809192020E94CF09FA
:101AE0000F5F1F4F23960630110509F70E94790CEE
:101AF00080910F019091A801980F9093A8012091D7
:101B00001001280F20931001121614F495301CF0C8
:101B1000819580930F01DF91CF911F910F910895CF
:101B2000198218821A82DCCF8F929F92AF92BF9255
:101B3000CF92DF92EF92FF920F931F93CF93DF9399
:101B4000EC014C81042F10E09801D8010E94802AFA
:101B50009B01AC010E944B2A4B015C01E0E2F0E0EA
:101B6000E01BF10BA5E5B0E0AC019B010E944B2A04
:101B70006B017C019F01DF010E946C299B01AC017C
:101B80000E94562A9B01AC01280D391D4A1D5B1D80
:101B9000C701B6010E945E2AF22E822F90E039E240
:101BA0003F15D8F143E0249F9001112435952795E6
:101BB000122F10959AEAC92E91E0D92E00E085E502
:101BC000E82EEF188E2D01FD8F2D9601412F60918B
:101BD00093020E94CF090F5F53E0C50ED11C06305F
:101BE00089F70E94790C9C8181E0992319F0903249
:101BF00019F48FEF8093110180911101890F8C836B
:101C0000DF91CF911F910F91FF90EF90DF90CF90D8
:101C1000BF90AF909F908F90089525E530E0A90187
:101C2000481B590BCA019A01220F331F280F391F75
:101C300037FFBCCF2F5F3F4FB9CFEF92FF920F938B
:101C40001F93CF93DF938C01CAEAD1E0F12CE12CF2
:101C5000F80194816091930280919202F3E0EF1673
:101C6000F104FCF49923F9F09E01409194020E9442
:101C7000CF092FEFE21AF20A239686E0E816F10464
:101C800039F70E94790CF801848190E00196817007
:101C900099278483DF91CF911F910F91FF90EF904F
:101CA0000895992309F39E0140E0E1CF90919102BC
:101CB00090FF0CC0EAEAF1E08183608342833396AF
:101CC00091E0EC3BF907C1F70C94790C08950F9360
:101CD0001F93CF93DF9300D00F92CDB7DEB78C0167
:101CE0008091A90181110AC09E012F5F3F4F4FEFE4
:101CF0006FEF0E94CF098A818093A901F801648166
:101D0000613069F08091A90140E0662361F040E014
:101D1000623011F44091A90180E060E004C060915C
:101D2000A90140E080E00E94560EF801848190E015
:101D3000019663E070E00E944B2984830F900F901E
:101D40000F90DF91CF911F910F910895CF93DF9363
:101D500000D00F92CDB7DEB79091910290FF0AC0EC
:101D60009E012F5F3F4F0E94CF094B8169818A817D
:101D70000E94560E0F900F900F90DF91CF91089513
:101D8000CF93DF93EC01EC81F0E0EC56FD4F4491F2
:101D9000E1E9F2E0628181810E94A60E8C818F5F71
:101DA0008C83DF91CF910895CF93DF93EC01E1E92C
:101DB000F2E0438162818C810E94A60E8C818F5F4C
:101DC0008C83DF91CF910895AF92BF92DF92EF9213
:101DD000FF920F931F93CF93DF93C9E7D1E001E503
:101DE00012E0D12CEE24E394F12C8991F894E82FA1
:101DF000E295EF70F0E021A18F70A70102C0440FBF
:101E0000551F8A95E2F7CA01922F982B91A392A1B0
:101E10008095892382A3789450EA5A95F1F7EEE7EA
:101E2000F1E030E020E0B12CA12C4191A42FA2954B
:101E3000AF70B0E090968C9190E04F7002C0959595
:101E400087954A95E2F780FD64C0C701022E02C063
:101E5000880F991F0A94E2F7A82AB92A2F5F3F4FEB
:101E60002E30310511F7FE01319780810E94650AFD
:101E7000F80180819181A816B90609F44DC0B1829C
:101E8000A08281E0D82A0E5F1F4FF1E0CE37DF0736
:101E900009F0ABCFDD2009F441C081E08093A601B9
:101EA0000E9406079093A5018093A4018091A4014C
:101EB0009091A5010E94F7060697A0F1809151022A
:101EC00090915202909383028093820280915302F8
:101ED00090915402909385028093840280915502E0
:101EE00090915602909387028093860280915702C8
:101EF00090915802909389028093880280915902B0
:101F000090915A0290938B0280938A021092A601BC
:101F100009C090E080E0A0CF80E0B4CF8091A6011E
:101F20008111C4CF8D2DDF91CF911F910F91FF9023
:101F3000EF90DF90BF90AF900895CF9384E090E052
:101F40000E94E429C82F81E290E00E94E429982FA2
:101F50008C2FCF9108950F931F93CF93DF93C42FAE
:101F6000D0E0CC0FDD1F2CE1629FC00DD11D1124EC
:101F70003CE8839FC00DD11D1124CE0186960E949E
:101F8000E429082F10E0102F0027CE0187960E9429
:101F9000E4299801282BC901DF91CF911F910F915E
:101FA0000895462F843038F4753028F46E3018F4D4
:101FB000672F0C94AB0F90E080E00895CF93DF93F0
:101FC0000E94D10FEC0182389105A9F1D8F5813337
:101FD000910509F496C048F58932910509F48AC043
:101FE0008A9709F495C0C11521E5D20708F0BCC055
:101FF000C11530E5D30708F014C1C83ED10508F07B
:102000009CC0C03ED10560F5C83AD10508F087C034
:10201000C53AD10508F0FDC0C130D10509F12097BE
:10202000F9F0C430D105E0F440C08533910509F4DE
:102030005AC0C997C1F680915B02837089F0C0EEE7
:10204000D0E00EC0833E910599F170F4803E910579
:1020500001F1823E910539F680915B0282FD21C03B
:10206000CE01DF91CF910895863E910561F1873EC3
:10207000910571F1843E910509F0B5CF80915C0224
:1020800081FFEECF80915B02C7EED0E084FD0DC0F2
:10209000E7CF80915B0280FD12C190915C0290FFBE
:1020A000DFCFC3EED0E084FFDBCFD0E0C0E0D8CFFD
:1020B00080915B0282FD06C190915C0290FDBFCFD2
:1020C00084FFCECFF2CF80915B0283FDDDCFC8CFFE
:1020D00080915B0283FDF9C090915C0291FFF0CF8B
:1020E000C4EED0E0BDCF80915B0285FFB9CFC9E2DD
:1020F000D0E0B6CF80915B0285FFB2CFC5E3D0E0E0
:10210000AFCF80915B0286FFABCFCAE2D0E0A8CF11
:1021100080915B0286FFA4CFC1E3D0E0A1CFCF3B8B
:10212000D10518F6C85AD0E0CC0FDD1FC55BDE4FD5
:102130000990D881C02DD46493CFC11540E2D40753
:1021400058F4C11581E0D80708F08ACFC03FD10507
:1021500008F4ABCFD06584CFC11590E4D90708F45B
:10216000A4CFDF70D06A7CCFC11525E5D20700F57A
:10217000C11534E5D30708F08AC0C11543E5D4077B
:1021800008F071C0C11582E5D80708F467C0CE0118
:102190008370992721E030E002C0220F331F8A9517
:1021A000E2F7C695C69580E2C89FE001112452C0AF
:1021B000C11599E5D907A8F4C11528E5D20708F09B
:1021C0006BC0C11536E5D30708F06FCF8C2F0E9486
:1021D0007C0AC82FD0E0DC2FCC27CC27DF71D0625F
:1021E0003FCFC1154AE5D40708F45BC0CE01905635
:1021F0008115904208F059CF8D2F8F710E947C0A73
:1022000090E0982F882788279F719C012C2BE9014B
:10221000E6CFC55AD0E0C85BDE4FC881D0E0D064BD
:102220001FCFCE01E4E096958795EA95E1F783709C
:102230002C2F26952695237040E2249F900111248F
:10224000382B8C2F8370C1E0D0E002C0CC0FDD1F93
:102250008A95E2F7C22BD32BDC6802CFDC2FCC2788
:10226000C16FD06AFDCECE018370992721E030E0A6
:1022700002C0220F331F8A95E2F7C695C69590E2F9
:10228000C99FE0011124C22BD32BDA68E9CEDC2FE1
:10229000CC27C46FD06AE4CEDC2FCC27C06FD06AC5
:1022A000DFCE8C2F8F700E947C0A34E0D695C795C4
:1022B0003A95E1F7CF709C2FEC01D069D1CEC9E3FC
:1022C000D0E0CECEC2EED0E0CBCEC6EED0E0C8CECF
:1022D000BF92CF92DF92EF92FF920F931F93CF9313
:1022E000DF938C01C090B102D090B202E090B302B3
:1022F000F090B4028091490290914A02A0914B0261
:10230000B0914C02C82AD92AEA2AFB2ACFE1D0E0B0
:10231000BC2ED701C6010C2E04C0B695A795979583
:1023200087950A94D2F780FD0EC0219788F7B12CCB
:102330008B2DDF91CF911F910F91FF90EF90DF9048
:10234000CF90BF900895B8018C2F0E94DE0F0197A7
:1023500061F3EECFCF93DF93EC010E946811BE01D1
:10236000DF91CF910C94DE0F0E94AA11292F2F70BC
:1023700092959F7092509E3078F4E92FF0E0EF56DE
:10238000F54D0C945F29803F19F020F4883E20F42D
:1023900081E00895843FE1F380E00895883EC0F332
:1023A000813FD1F7F5CF822F869586958695089542
:1023B0006F927F928F929F92AF92BF92CF92DF9255
:1023C000EF92FF920F931F93CF93DF9384E1C82E78
:1023D00084E0D82E9EECE92EF12CE701CC58D109EF
:1023E00036011BC0F50185909490692DC8010E94AB
:1023F000F829682DC80101960E94F82982E0A80EEC
:10240000B11C0E5F1F4FC017D10761F78CE1680E3A
:10241000711C6C96CE15DF0529F08E010C51110947
:102420005301E0CF7E018CE8E80EF11C8CE8C80E69
:10243000D11C8EEFE81682E0F80679F6DF91CF9195
:102440001F910F91FF90EF90DF90CF90BF90AF90D2
:102450009F908F907F906F900895682F86E090E016
:102460000C94F82980917F0281FF11C08D7F8093A9
:102470007F020E942D1280916F008E7F80936F00EB
:1024800080917F028695869586950C9480090895A3
:1024900080917F0281FD10C0826080937F020E9444
:1024A0002D121092500210924F0210924E02809103
:1024B0006F00816080936F000895CF93DF93C6E52E
:1024C000D2E060E0CE010E94F8292196C11584E097
:1024D000D807B9F7DF91CF910895CF93C82F6FEF49
:1024E000811161E282E290E00E94F8296FEFC11150
:1024F00064E083E290E00E94F8296FEFC11167E089
:1025000084E290E0CF910C94F8298F929F92AF9241
:10251000BF92CF92DF92EF92FF920F931F93CF93D0
:10252000DF93FC01B280948081E08483CCEBD1E026
:102530000AEA11E08BE4A82E88248394EE24EA941E
:10254000F12C2BE4C22ED12C91101DC01B821A82BB
:1025500098014A81698188810E94CF0925960D5F83
:102560001F4F81E0CA3DD80779F7DF91CF911F91C6
:102570000F91FF90EF90DF90CF90BF90AF909F9022
:102580008F900C94790C2B81222309F121502B83FD
:102590003C818A2D821B311101C0822F90919402BF
:1025A000899FC0011124B6010E9437296A83211135
:1025B00004C0332311F01C82AB8222E02B1540F2C1
:1025C000809192028883809193028983C1CF0E9477
:1025D000C729823091400CF0BBCF82E08B15C0F44C
:1025E0000E94C729B7010E944B29888322E02B153E
:1025F00090F40E94C729209193022695622F70E0E3
:102600000E944B29280F29831A82AB828C82A0CF8B
:1026100080919202EACF20919302F5CF90E080E082
:102620000E94F22921E08C3E9E4F09F020E0822F8B
:1026300008956CEE7EEF90E080E00E94162A60E044
:1026400082E090E00E94F82960E083E090E00E9440
:10265000F8291092490210924A0210924B021092ED
:102660004C0260E084E090E00E94F82960E081E2A2
:1026700090E00E94F82960E085E090E00E94F8294F
:1026800060E086E090E00E94F8296FEF87E090E03C
:102690000E94F82940E050E0BA0188E090E00E94F2
:1026A0000A2A60E08DE090E00E94F82940E050E0C6
:1026B000BA0188E190E00E940A2A60E087E190E098
:1026C0000E94F82940E050E0BA018CE190E00E94BD
:1026D0000A2A60E080E290E00E94F82940E050E0A1
:1026E000BA0188E190E00E940A2A40E050E0BA0175
:1026F0008FE090E00E940A2A40E050E0BA0183E1B6
:1027000090E00C940A2A0E940E13811102C00E94CC
:10271000191386E090E00E94E42980937F028032C2
:1027200020F08770886180937F0290917F02892FCB
:10273000817090FF04C0892F8695869586950C94AC
:102740008009CF92DF92EF92FF926B017C010E9491
:10275000C009B701A60188E090E0FF90EF90DF90FC
:10276000CF900C940A2A5F926F927F928F929F92E1
:10277000AF92BF92CF92DF92EF92FF920F931F938F
:10278000CF93DF9300D00F92CDB7DEB7182F762E00
:10279000042F622E9091910290FF29C0E92FE695B7
:1027A000AE2FB0E0A35EBE4F8C91809380029E7FDF
:1027B000923081F59E012F5F3F4F812F0E94CF09FC
:1027C0004B8169818A810E94560E10939202709209
:1027D000930200939402662051F0609191027091EF
:1027E000920280919302909194020E94A1130F9003
:1027F0000F900F90DF91CF911F910F91FF90EF906D
:10280000DF90CF90BF90AF909F908F907F906F9010
:102810005F900895823019F400919402D6CF8630EB
:1028200019F410919202D1CF8930D9F3893169F628
:10283000E9518E2F8170582EE695F0E0E157FD4F5B
:10284000A590B490BB248AEAE82E81E0F82ED12C22
:10285000C12C96E0892E912CC601B4010E94372923
:10286000812F511013C0860F9701402F672D0E94B2
:10287000CF09CA0CDB1C83E0E80EF11C8CEBE816D8
:1028800081E0F80649F70E94790C9FCF861BECCFB8
:10289000E1E9F2E0438128E0421B08F440E021E056
:1028A000628181810C94B313E1E9F2E0438128E075
:1028B000420F08F44FEF21E0628181810C94B31341
:1028C000E1E9F2E0628128E0621B08F460E021E0C7
:1028D000438181810C94B313E1E9F2E0628128E045
:1028E000620F08F46FEF21E0438181810C94B313F0
:1028F000E1E9F2E0818121E04381628188500C941A
:10290000B313E1E9F2E0818121E043816281885FD4
:102910000C94B31380919502882319F08150809311
:102920009502609191027091920280919302909130
:1029300094020C94A11380919502833018F48F5F58
:10294000809395026091910270919202809193021E
:10295000909194020C94A113E1E9F2E083E080836A
:1029600011828FEF828383831482608171818281DF
:1029700093810C94A11310924702EEE9F1E086E0F6
:10298000DF011D928A95E9F70C9431081F93CF93CC
:10299000DF93CDB7DEB7AA970FB6F894DEBF0FBEB0
:1029A000CDBF85EA92E02091F100DC012D93CD01AD
:1029B000B2E08D3A9B07B9F78091A602833009F403
:1029C00071C0B8F4813009F448C0823009F4B2C053
:1029D0008091E80083FF3AC18091A5029091A60200
:1029E0009A3008F033C1E92FF0E0E156F54D0C9430
:1029F0005F298A3009F48DC08B3009F470C08930AA
:102A000039F78091A502813219F78091A90290913E
:102A1000AA02009711F00297D9F68091E800877F0B
:102A20008093E8008091E80082FF37C09091F30026
:102A30008091F200029729F48091F1008B7F813020
:102A400021F48091F100809399028091E8008B77C6
:102A50008093E8000E94B604BBCF8091A502813A22
:102A600009F0B6CF8091E800877F8093E8008091DD
:102A7000A9029091AA02892B61F468E08AE992E0A8
:102A800070E00E9468058091E8008B778093E800F1
:102A90009FCF60E090E080E0F3CF8091AD028111A4
:102AA000C1CF96CF8091A502813A09F091CF809154
:102AB000A9029091AA02892B09F08ACF8091E8009F
:102AC000877F8093E8008091E80080FFFCCF8091B1
:102AD0001C018093F1008091E8008E77B9CF80913E
:102AE000A502813209F074CF8091A9029091AA02C7
:102AF000892B09F06DCF8091E800877F8093E800F3
:102B00000E94B6048091A70280931C010E94BB140E
:102B10005FCF8091A502813209F05ACF8091E80001
:102B2000877F8093E8000E94B6048091A80280937A
:102B300098024ECF8091A502813A09F049CF809149
:102B4000E800877F8093E8008091E80080FFFCCF59
:102B500080919802BECF803899F0823809F076C013
:102B60008091A9028F70873008F070C08093E900CF
:102B70008091EB0085FB882780F91092E90006C060
:102B80008091A2029091A302911182609091E8003D
:102B9000977F9093E8008093F1001092F10080916C
:102BA000E8008E77B5C1882309F4A2C1823009F00C
:102BB0004DC08091A7028111A6C18091A9028F709A
:102BC0002FEF280F263008F041C08093E9002091B4
:102BD000EB0020FF98C1933031F48091EB008062CC
:102BE0008093EB0090C19091EB0090619093EB008B
:102BF00021E030E001C0220F8A95EAF72093EA0035
:102C00001092EA008091EB008860EACF81111EC02B
:102C10001091A7021F778091E3008078812B809329
:102C2000E3008091E800877F8093E8000E94B6046B
:102C30008091E80080FFFCCF8091E3008068809362
:102C4000E30082E0111183E08093AD028091E800FF
:102C500083FF0AC08091E800877F8093E80080911D
:102C6000EB0080628093EB00AA960FB6F894DEBF6B
:102C70000FBECDBFDF91CF911F9108958058823054
:102C800028F72091A7023091A8022C3DE3E03E07EF
:102C9000A1F583E08A838AE289834FB7F894DE0145
:102CA000139620E03EE051E2E32FF0E0509357000E
:102CB000E49120FF03C0E295EF703F5FEF708E2F2D
:102CC00090E0EA30C0F0C7968D939D932F5F24313A
:102CD00059F74FBF8091E800877F8093E8006AE250
:102CE00070E0CE0101960E9468058091E8008B7724
:102CF0008093E800ABCFC096E7CF8091A902909176
:102D0000AA02432F55274330510509F44AC078F5EC
:102D10004130510509F47AC08BE590E0E9EFF6E027
:102D20004230510509F092CF2091E800277F20938F
:102D3000E8002091AB023091AC028217930708F4AF
:102D40009C0140E02115310509F065C0411163C0C7
:102D50008091E80082FDC9CF8091AD02882329F2DD
:102D6000853019F28091E80083FFF2CFBECF413267
:102D7000510509F43CC04232510509F067CF833058
:102D8000910508F063CFFC01EE0FFF1FE157FE4FE6
:102D90000190F081E02D84579E4FDC018C9190E0F2
:102DA0001AC0332721303105D1F02115310561F0EA
:102DB0002230310509F04ACFE6E6F7E0E4918E2FA4
:102DC00090E0E6E6F7E007C0E2E9F7E0E4918E2F55
:102DD00090E0E2E9F7E0009709F438CFA5CFE8E703
:102DE000F7E0E4918E2F90E0E8E7F7E0F4CF83304E
:102DF000910508F02BCF880F991FFC01EB56FE4F71
:102E00000190F081E02D89E090E08ECF82E190E0AA
:102E1000E4E5F7E089CF8091AD02882309F465CF1E
:102E2000853009F462CF8091E80083FD5ECF809108
:102E3000E80082FD8DCF8091E80080FF83CF9091E4
:102E4000F3008091F2002115310519F088309105C9
:102E500050F041E0089709F040E08091E8008E775B
:102E60008093E8006FCF44914093F1003196215058
:102E700031090196E8CF803809F0E8CE8091E8006A
:102E8000877F8093E8008091A4028093F10087CE31
:102E90008111DCCE1091A702123008F0D7CE8091BC
:102EA000E800877F8093E8001093A4020E94B60494
:102EB000112311F084E005C08091E30087FDFACF73
:102EC00081E08093AD0242E061EC81E00E94D50494
:102ED00042E261EC84E00E94D50442E261EC82E0CF
:102EE0000E94D50442E260EC83E00E94D504AECE9D
:102EF0008091A702813009F0A9CE81E0933009F0DA
:102F000080E08093A3021092E9008091E800877F1F
:102F10008093E8000E94B60499CE60919102669574
:102F200070E04BE050E084E091E00E94D729892BCB
:102F300019F481E0809381020E9406079093620257
:102F40008093610208959091910290FF36C0917034
:102F5000811129C0926090939102662351F0609193
:102F600091027091920280919302909194020E943A
:102F7000A11360919102669570E04BE050E084E00F
:102F800091E00E94D729892BA9F01092810281E05B
:102F90008093640220E040919402609193028091BA
:102FA00092020C94B3138B3210F09465D4CF880F37
:102FB000982BD1CF0E948D17EACF0895809191026E
:102FC0008695815009F48AE261E00C94A317809100
:102FD000910286958F5F8B3208F081E061E00C945E
:102FE000A3179091910290FF07C09695981720F033
:102FF000961710F40C94E71761E00C94A3174F9206
:103000005F926F927F928F929F92AF92BF92CF9278
:10301000DF92EF92FF920F931F93CF93DF9300D035
:1030200000D00F92CDB7DEB77C01FC018381948183
:10303000892B31F08081918189238F3F09F00EC661
:103040000F900F900F900F900F90DF91CF911F91E5
:103050000F91FF90EF90DF90CF90BF90AF909F9037
:103060008F907F906F905F904F9008950E946811AD
:10307000182F682F89819A810E94BA0769817A8105
:10308000812F0E94D10F8C01F7019281992309F4BD
:10309000B9C5980122513F452031310508F09DC541
:1030A0008FEF93E00E94E429025156E5852E52E00D
:1030B000952E882379F180914402877009F4C0CF5E
:1030C000F7018281882309F4BBCF82E00F900F9033
:1030D0000F900F900F90DF91CF911F910F91FF9064
:1030E000EF90DF90CF90BF90AF909F908F907F90A8
:1030F0006F905F904F900C9497088114F4E09F06B6
:10310000D1F2C4010E94E429811101C001502FEFC6
:10311000821A920A0111F1CF1C821B8266246394E9
:103120004AE0542E84010F5F1F4FC4010E94E4291E
:1031300089831A82882309F4BECF9FEF980F9330BA
:1031400008F58A83698232E0830E911CC8010E94CF
:10315000E4298B83882309F4AECF8E010F5F1F4FC4
:10316000F80120812223F1F2213009F043C091813E
:103170008281913049F40E5F1F4F0E94020C0F5F55
:103180001F4FEECF4801E9CF923029F40E5F1F4F59
:103190000E946B0BF4CF933029F40E5F1F4F0E94F7
:1031A000E608EDCF943019F00F5F1F4FE8CF0E5FA8
:1031B0001F4F30E020E0B8016F5F7F4FF801418181
:1031C0008053990B8A30910550F021503109B8F2A3
:1031D0008FE99FE00197F1F700C00000F6CF529E03
:1031E000F001539EF00D11249C012E0F3F1F842FE0
:1031F0008B01E1CFE22FF0E0EC59F94F7490822F70
:1032000086958695869590E0FC01EC5AF94FA4903E
:103210002770B12C022E02C0B594A7940A94E2F74D
:10322000E1E0AE22BB24FC01EC5BF94FC490D12C51
:1032300002C0D594C7942A95E2F7F1E0CF22DD24AD
:10324000A114B10419F081EE0E946B0BC114D104DA
:1032500019F086EE0E946B0B872D0E94020CCD2880
:1032600019F086EE0E94E608AB2809F488CF81EEBB
:1032700096CF81E00E94AF080E9458081CCF81E0E1
:103280000E947408F9CF82E0F5CF82E0F9CF83E0A5
:103290000E94A50980917F020E942D120CCF80E030
:1032A000F7CF80917F02982F987F79F08850809394
:1032B0007F02887F91E009F490E080917F0290FB8B
:1032C00080F980937F020E942D1280917F02869563
:1032D000869586950E948009EECE80917F02982F78
:1032E000969596959695933040F49F5F990F990F18
:1032F000990F8770892B80937F0280917F02816074
:10330000E0CF80917F0280FF07C08E7F80937F0295
:103310000E942D1280E0DECF80FDCDCE81608093B3
:103320007F02813019F489E080937F0280917F02CF
:10333000CACF90917F02892F8695869586958F5F5B
:103340008F719770843048F4880F880F880F892B0D
:1033500080937F0280917F02ACCF90937F02FACF5F
:1033600080917F0281FF03C00E943212A4CE0E948E
:103370004812A1CE27E245EE65EEA4C426E241EE56
:1033800060EEA0C427E245EE64EE9CC426E241EE66
:1033900062EE98C428E241E0EFCF80915B02806149
:1033A0000630ECE51E0709F489C080915B02886055
:1033B00007301C4508F482C080915B0280627EC0A9
:1033C00080915B028D7F0C302CE5120709F476C0EA
:1033D00058F40A308CE5180709F485C008F47DC05C
:1033E00080915B028E7F6AC080915B02877F0E3086
:1033F000ECE51E0709F462C080915B028B7F0F3001
:103400001C4508F45BC080915B028F7E57C00C3F67
:103410002CE5120709F459C030F503318CE5180783
:1034200009F46DC078F40131ECE51E0709F463C0BE
:1034300002311C4509F08FC40E94BB1480915B02CD
:103440008F773CC005312CE5120709F460C008F401
:1034500074C00B3F1C4509F07EC480915C02816002
:1034600080935C0278C401159DE5190709F44BC0EF
:1034700088F480915C028D7F0E3FFCE51F0781F38D
:1034800080915C028E7F0F3F1C4550F380915C025F
:103490008360E6CF02303DE5130709F457C008F416
:1034A00042C060E003301D4509F055C48EE090E055
:1034B0000E94F82950C480915B02816080935B0276
:1034C0004AC480915B028460F9CF80915C02826083
:1034D000C7CF80915B028064F1CF0E94BB148091C2
:1034E0005B028068EBCF80915B028C60E7CF8091BC
:1034F0005B028F7DE3CF80915B028F7BDFCF80917A
:103500005B02837FDBCF80915C028C7FA9CF8091AF
:103510005B0282FB992790F921E0922790FB82F9C8
:1035200090FB83F9CBCF80915C02982F909591709E
:103530008E7F892B90FB81F993CF0E94BB149091D1
:103540005B02892F97FB87F98058B8CF61E0AECF37
:10355000809147020631ECE51E0709F090C38A7A94
:1035600091E009F490E09093DE01811106C089E2B8
:103570000E9479070E943F079ECD85E3F9CF85E33E
:103580006AC38091910280FF1BC08E7F809391025D
:1035900060919102709192028091930290919402B5
:1035A0000E94A11310928102FFEF20E732E0F15058
:1035B00020403040E1F700C000000E94790C7BCD34
:1035C00081608093910261E086950E94A31773CD7C
:1035D0004EED57E167EE77E10E94BB096CCD47EEF7
:1035E00057E16EED77E1F8CF48E754E161E874E127
:1035F000F3CF41E854E168E774E1EECF40E654E1EF
:103600006CE674E1E9CF4CE654E160E674E1E4CFA6
:1036100048E454E164E574E1DFCF44E554E168E453
:1036200074E1DACF4AE854E16BE974E1D5CF4BE9B4
:1036300054E16AE874E1D0CF61E081E0C6CF65E093
:1036400082E00E94F11737CD68E086E0FACF6EE0A5
:1036500089E0F7CF64E18FE0F4CF67E185E1F1CF56
:1036600061E088E1B2CF62E289E1EBCF61E083E221
:10367000ACCF01158CE5180709F447C00F3D1C4578
:1036800009F450C0F70100811181992309F44DC05C
:10369000C8010E946811D82E682FC8010E94BA077D
:1036A000B8018D2D0E94DE0F8C01882EF701A580B8
:1036B000A2943FE0A322D280D110109246028091C2
:1036C0004402877099F0DD2089F0812F807F80345B
:1036D00021F080E2800F883048F082E00E94970855
:1036E000809144028770CC24C3948111C12CB12EE7
:1036F000B2942FE0B222FBE0FB1508F450C0EB2D92
:10370000F0E0E755F54D0C945F290E94BB14FFEFE4
:1037100024E33CE0F15020403040E1F700C00000DD
:103720000E94470B0E941913C6CCC8010E94920741
:10373000D82EB6CF212F2F70A22E107F19F0A29471
:1037400090EFA922DD20C9F0AA2069F080E2800F65
:10375000883010F081100BC080914702A82AA092F7
:1037600047020E943F07802F0E946B0B18C0809178
:103770004602A82AA0924602F4CF802F0E94E608B3
:10378000AA2069F0A094005E083010F081103BC0C0
:1037900080914702A822A09247020E943F07EB2D8A
:1037A000E850FF0B349710F40E94DA08CC2009F49B
:1037B00047CC8091440280FD43CCF701128285956D
:1037C000859585950E94AF08C7010E94FF178091DB
:1037D00044028595859585950F900F900F900F90D9
:1037E0000F90DF91CF911F910F91FF90EF90DF909D
:1037F000CF90BF90AF909F908F907F906F905F9091
:103800004F900C94740880914602A822A092460220
:10381000C4CF312F3F70932E107F103219F0929445
:1038200080EF9822882071F081E0881661F1DD2018
:10383000B9F1AA2071F1F701858180FF94CF8F70D3
:10384000858327C0DD2091F090914802892D892B36
:10385000A11003C00E94FB07A2CFE1E0AE12FACF95
:10386000981709F49CCF8093480299CFA11006C005
:103870000E943907892D0E94F00791CFF1E0AF1621
:1038800009F48DCFF5CFDD2031F025E02A1508F4BD
:1038900086CF892DDFCF34E03A1508F480CFEACF08
:1038A000AA2041F3F9E38F1291C12FEF37EE83E0A5
:1038B000215030408040E1F700C0000087C1812FD7
:1038C00086958695837061F0813009F068CFC801D4
:1038D0009370D11002C090E080E00E9405085FCF95
:1038E000C8019370D11002C090E080E00E941B08D4
:1038F00056CF802FDD2029F00E948F060E941207EC
:103900004ECF0E94CA05FACF812F837009F066C09E
:10391000D11045CF802F829586958770880F880FAC
:10392000602F6F70462E512C712C612C082E04C014
:10393000440C551C661C771C0A94D2F740E050E0FA
:10394000BA0104FF0FC04FE050E060E070E004C037
:10395000440F551F661F771F8A95D2F740955095E3
:1039600060957095812F869586958370823019F1C8
:10397000D8F40091490210914A0220914B023091F3
:103980004C02813069F04429552966297729CB01F9
:10399000BA0160237123822393230E94D008FFCEB3
:1039A000402A512A622A732ACB01BA016429752957
:1039B00086299729F2CF442955296629772900912C
:1039C000490210914A0220914B0230914C02CB01E6
:1039D000BA016027712782279327DFCF8695DD20E4
:1039E00011F0812F8170882309F4D9CE802F829520
:1039F00086958770880F880F602F6F70462E512C28
:103A0000712C612C082E04C0440C551C661C771CBC
:103A10000A94D2F740E050E0BA0104FF0FC04FE033
:103A200050E060E070E004C0440F551F661F771F30
:103A30008A95D2F74095509560957095812F86951F
:103A400086958370823019F1D8F40091B1021091FB
:103A5000B2022091B3023091B402813069F044295E
:103A6000552966297729CB01BA0160237123822366
:103A700093230E944E0893CE402A512A622A732A29
:103A8000CB01BA016429752986299729F2CF4429E7
:103A90005529662977290091B1021091B20220912F
:103AA000B3023091B402CB01BA016027712782279B
:103AB0009327DFCF1F70DD2029F0812F0E94AF08F0
:103AC000802FC8CE802F0E94F007812F0E9474089B
:103AD00066CE802F92EF891609F450C0981578F0C1
:103AE000E0EF8E1619F1F1EF8F1609F43FC0DD20DB
:103AF00009F467C0A11037CE812F8F713CC023EF2E
:103B0000821609F440C034EF8312F1CFDD2009F4AE
:103B10004DC01F71812F0E94AF08E8E01E9FC001B9
:103B20001124836080934402812F25C0DD20C9F0D9
:103B300084E08A1508F433CE1F7161E070E080E004
:103B400090E004C0660F771F881F991F1A95D2F75F
:103B50000091B1021091B2022091B3023091B402EF
:103B6000A4CF95E09A1508F41ACEE6CF812F8F7175
:103B7000DD2009F4ABCF0E94AF0811CE812F8F71E9
:103B8000DD20C9F3A3CF60E070E0CB01DD2009F4B4
:103B900070CF1F7161E070E080E090E004C0660FBC
:103BA000771F881F991F1A95D2F763CF81E00E9473
:103BB0009708F1E0FA1508F0F2CD82E00E9497082C
:103BC000EECDAA2039F0893309F46FCE802F0E9400
:103BD000E608E5CD812F8F7179CF0031FFE51F0712
:103BE00009F447CB01312FE5120709F44CCBF8015A
:103BF000EC5BFC45E730F10508F04DC0EB54F54DAA
:103C00000C945F2900313FE5130709F438CB0131EB
:103C10008FE5180709F439CB043FECE51E0709F4DA
:103C2000ADCB08F0A8C0093D2CE5120709F4A2CBE2
:103C30000A3D3CE5130709F4ADCB083D8CE51807B8
:103C400009F43DC006311C4509F01CCD8091DE0110
:103C5000811195CC89E20E946C078CCC85E0DE0155
:103C6000119601900D928A95E1F7F70122818981E1
:103C70009A812111FBC90E949207182FFFC98272F5
:103C8000F801E35CFC45E431F10508F0F2CCE454C2
:103C9000F54D0C945F29043F2CE5120709F46ECB17
:103CA000A8F4093D8CE5180709F464CB0A3DECE55E
:103CB0001E0709F46FCB083DFCE51F0799F426E2C7
:103CC00041EE61EEC7010E94150CF5C9063F2CE5D7
:103CD000120709F45BCB08F455CB073F8CE51807B6
:103CE00009F455C01092B00202302CE5120708F416
:103CF0002FCC06313CE5130738F098012B5F3C458B
:103D00002930310508F024CC0E949D0F90935C026D
:103D100080935B0200318CE5180709F4E8CB08F0CA
:103D200076CB0830ECE51E0709F4D3CB08F048CB7E
:103D300004302CE5120709F4C4CB08F02ECB023076
:103D40008CE5180709F4B7CB80915B0282600330E1
:103D50001C4509F4B3CB60915B0210915C0284E0D6
:103D600090E00E94F829612F81E290E00E94F829FA
:103D70000E94BB14A0C9063FECE51E0709F406CB60
:103D800008F400CB073F2CE5120709F05BCF27E2D0
:103D900045EE66EE97CF1F93CF93DF938091E401BA
:103DA000807FA9F48091E101882389F08091160237
:103DB000D091E5016091DF017091E001A091E201F5
:103DC000B091E301C62FC72316E0D81304C0DF91DA
:103DD000CF911F91089590E0109711F0CF3F19F403
:103DE00001968770F2CF189F9001199F300D112412
:103DF000F901EA51FE4F41814713F2CF408146134A
:103E0000EFCF42814111ECCF438154814A1B5B0BC0
:103E1000483C510528F78091E4018F7080618093C0
:103E2000E401F901E551FE4F80818F70806180834C
:103E30008FED91E00E94FF17DF91CF911F910C94BD
:103E4000E607AF92BF92CF92DF92EF92FF920F936D
:103E50001F93CF93DF93CDB7DEB761970FB6F8947A
:103E6000DEBF0FBECDBF8C0185E0F801DE011D96DF
:103E700001900D928A95E1F7F80180819181E280AD
:103E80002FEDA22E21E0B22E6091E2017091E301AC
:103E90006115710509F43EC13091DF014091E001E7
:103EA000232F24232F3F09F435C1C380D480F09001
:103EB000E101F601E61BF70BFF2009F4FBC020919E
:103EC000E401522F507FE83CF10508F0BBC05111CE
:103ED00078C0FE2C491321C038131FC0E1101DC04B
:103EE0002F7020612093E401C5010E94FF1780918B
:103EF000E401F80185838F2D61960FB6F894DEBF3B
:103F00000FBECDBFDF91CF911F910F91FF90EF902A
:103F1000DF90CF90BF90AF900895CD2829F0282F43
:103F200029232F3F09F014C120E0F22FF170DF2E7A
:103F300020FF3DC0209116024091E50156E0241378
:103F400015C08D879E878D859E850E94AA11292F79
:103F500022952F702230F8F0243020F59F70F9F070
:103F6000F8019581907FD9F4D12C1FC030E0529F89
:103F7000F001539FF00D1124EA51FE4F6181961319
:103F800006C06081861303C06281E61210C02F5FF5
:103F90003F4F2770D4CF9F7011F0882329F3805EA4
:103FA000883010F3C8010E94FF17FD2CA4CFEE202B
:103FB00009F4A1CF8091E40181608093E401F12CA8
:103FC0009ACF491312C0381310C0E1100EC0F80187
:103FD0002583C8010E94FF1786E0F801AFEDB1E02C
:103FE00001900D928A95E1F786CF8D879E878D850A
:103FF0009E850E94B411882309F1EE20F9F080918A
:10400000E401803270F02091DF013091E0013887C7
:104010002F831986DB86CA868C87CE0107960E947D
:10402000FF1786E0F801AFEDB1E001900D928A959F
:10403000E1F70E94CB1EFF24F3945DCFC8010E94DC
:10404000FF17F9CF51110AC08FED91E00E94FF17C1
:1040500086E0F50111928A95E9F7B1CF49130FC0B7
:1040600038130DC0E1100BC0F8012583C8010E9470
:10407000FF1786E0F50111928A95E9F73CCF8D870D
:104080009E878D859E850E94B4118823B9F2EE200B
:10409000A9F28091E401803220F22091DF01309179
:1040A000E0013A8329831B82DD82CC828E83CE019C
:1040B0000196B5CFE83CF105E0F6FE2CEE2009F4C0
:1040C000BDCF491316C0381314C08091E40180FDA0
:1040D00083CF982F907F09F47FCFF8018583903F9D
:1040E00009F477CF982F907F905F8F70892B85830D
:1040F00070CF8D879E878D859E850E94B41181111A
:1041000090CF8091E40181608093E401C8010E9416
:10411000FF17F1CEEE2009F491CF8D879E878D8514
:104120009E850E94B411F82E882309F487CF86E07B
:10413000F801AFEDB1E001900D928A95E1F7809121
:10414000DF019091E0010E94AA110E94CB1ED3CE04
:1041500021E02E25EACE1F93CF93DF93CDB7DEB7B4
:1041600067970FB6F894DEBF0FBECDBF4B8B5C8B4D
:104170006D8B7E8B8F8B1A8A198A85E0FE01739670
:10418000DE011D9601900D928A95E1F786E0FE0111
:104190003D96DE01179601900D928A95E1F7CE01CA
:1041A00007960E94211F882389F016E0809116024D
:1041B0009091E501891349C067960FB6F894DEBF68
:1041C0000FBECDBFDF91CF911F91089586E0FE0114
:1041D0003796DE01119601900D928A95E1F78A8556
:1041E0009B85892B11F38F81988589238F3FE9F275
:1041F0002091E50130E0C90101968770992740912F
:1042000016024817190671F40E94BB141092E501BA
:104210001092160286E0EFEDF1E0DF011D928A9523
:10422000E9F7C3CF96E0929FD001939FB00D112480
:10423000AA51BE4FFE01319601900D929A95E1F779
:104240008093E5010E94E607B0CF819FC001112451
:104250008A519E4F0E94211F882309F4ADCF80917F
:10426000160290E0019687709927809316029ECFE0
:104270001F920F920FB60F9211242F933F934F93DB
:104280005F936F937F938F939F93AF93BF93CF93DE
:10429000DF93EF93FF93D091E900DF708091EC0002
:1042A000C82FC17080FDC0E81092E9008091F00035
:1042B000877F8093F00078940E94C6141092E900E2
:1042C0008091F00088608093F000CD2BCF70C09378
:1042D000E900FF91EF91DF91CF91BF91AF919F9155
:1042E0008F917F916F915F914F913F912F910F909F
:1042F0000FBE0F901F9018951F920F920FB60F923E
:1043000011242F933F934F935F936F937F938F93DA
:104310009F93AF93BF93EF93FF938091E10082FF50
:1043200009C08091E20082FF05C08091E1008B7F8F
:104330008093E1008091DA0080FF24C08091D80052
:1043400080FF20C08091DA008E7F8093DA00809118
:10435000D90080FFB2C080E189BD82E189BD09B486
:1043600000FEFDCF81E08093AD028091900281112B
:1043700009C00E9414040E9407058091E200846035
:104380008093E2008091E10080FF17C08091E200FD
:1043900080FF13C08091E2008E7F8093E2008091C5
:1043A000E20080618093E2008091D8008062809377
:1043B000D80019BC85E08093AD028091E10084FFB4
:1043C00040C08091E20084FF3CC080E189BD82E171
:1043D00089BD89B5982F917080FFFBCF8091D8005F
:1043E0008F7D8093D8008091E1008F7E8093E100E3
:1043F0008091E2008F7E8093E2008091E2008160F4
:104400008093E2008091A402882309F45CC084E0D8
:104410008093AD020E94BB140E9483130E94DA08AD
:104420001092970280919602882349F08091910220
:1044300081608093910260E086950E94A3170E949C
:104440008D178091E10083FF27C08091E20083FFF8
:1044500023C08091E100877F8093E10082E0809318
:10446000AD021092A4028091E1008E7F8093E10062
:104470008091E2008E7F8093E2008091E200806173
:104480008093E20042E060E080E00E94D5048091E9
:10449000F00088608093F000FF91EF91BF91AF91A1
:1044A0009F918F917F916F915F914F913F912F914C
:1044B0000F900FBE0F901F90189519BC1092AD026F
:1044C000109290025FCF8091E30087FD93E090937C
:1044D000AD02A0CFCDB7DEB7AA970FB6F894DEBF76
:1044E0000FBECDBF84B7877F84BF0FB6F894A89561
:1044F00080916000886180936000109260000FBE20
:1045000080E890E00FB6F89480936100909361008A
:104510000FBE85B7806885BF85B7806885BF0E945C
:1045200014040E9407058091E20084608093E200F9
:1045300078948091AD028823A1F01091E9001F705A
:104540009091EC00892F817090FD80E8182B1092DB
:10455000E9008091E80083FD0E94C6141F7010934B
:10456000E90082E084BD93E095BD9AEF97BD80930A
:104570006E0081E30E94650A82E30E94650A83E37C
:104580000E94650A80EF0E94650A81EF0E94650A19
:104590000EE711E0F80181918F010E94650AF1E0B8
:1045A0000C381F07B9F71092520210925102109264
:1045B00083021092820210925402109253021092BF
:1045C00085021092840210925602109255021092A7
:1045D000870210928602109258021092570210928F
:1045E00089021092880210925A0210925902109277
:1045F0008B0210928A020E94E40E8FE39CE90197DD
:10460000F1F700C000000E94E40E8091820280FF5A
:104610000BC080E00E946D126FEF7FEF90E080E0B2
:104620000E94162A0E94470B0E940E13811102C09D
:104630000E941913279A2F988AE08093800089E1BD
:10464000809381008FEF9FEF909387008093860087
:104650000E94831380917F0281FF0BC01092500251
:1046600010924F0210924E0280916F0081608093F1
:104670006F0082E290E00E94E429813209F0FDC4DB
:1046800083E290E00E94E429843009F0F6C484E2D9
:1046900090E00E94E429873009F0EFC40E940E13D5
:1046A000811102C00E94191382E090E00E94E42967
:1046B000809374020E949D0F90935C0280935B0232
:1046C00083E090E00E94E429682F70E090E080E0B1
:1046D0000E94D0080E94831380915D02811133C033
:1046E0000E940E13811104C00E9419130E94AC1481
:1046F00088E090E00E94EC2960939102709392020E
:1047000080939302909394026E7F71F40E94AC1494
:1047100088E090E00E94EC296093910270939202ED
:1047200080939302909394020E94C0091092810298
:104730008091910280FF04C060E086950E94A317DB
:1047400081E080935D0282E191E090935F0280932B
:104750005E0253E0652E712CEE24EA94F12C77EE84
:10476000C72E76E0D72E8091AD02853009F47FC147
:104770000E94E40EA2E8B2E0E5E7F2E010E000E01B
:10478000702F8D919D91219131912817390709F44E
:10479000D1C12827392760E0AA24A394B12CA9010C
:1047A0004A215B21452B09F4BFC169A37AA39C016F
:1047B0002A213B2191E0232B09F490E09BA30E9446
:1047C00006078160782F9DA38CA349A15AA16BA1F4
:1047D0008DA10E94AB20000F111FF801EB58FD4F77
:1047E00080819181A826B926B182A0828091810220
:1047F000882309F441C080918002E0919102E695FE
:10480000E81BE0936302823009F0ABC1F0E0EB50AB
:10481000F94FE4910E2F10E080ECA82E8EE0B82E18
:1048200080916402882389F0109264020E94060736
:10483000980120953095820F931F90936202809388
:10484000610210926602109265028091610290915D
:1048500062020E94F7068017910770F0E0916102F2
:10486000F09162020E0F1F1F10936202009361020B
:1048700081E692E0F501099586E0EDE6F2E0DE01E1
:10488000119601900D928A95E1F7B0906F02A09079
:104890007002109171020091720210926F021092D8
:1048A000700210927102109272028B2D8A2909F403
:1048B00048C080916B0290916C020E94F7069C01A7
:1048C00090916A02992309F4F3C323333105C8F1A7
:1048D0009F3F19F09F5F90936A02BB2059F00E949E
:1048E0006F069FEF1B140CF491E0899F802D11241B
:1048F00080936F02AA2059F00E946F069FEF1A144E
:104900000CF491E0899F802D1124809370023091E6
:104910006F023323B1F020917002222391F045EB16
:104920003403C0011124992309F486C190936F02C6
:1049300045EB240390011124332309F481C1309302
:104940007002812F802B09F448C0809168029091F9
:1049500069020E94F7069C0190916702992309F46D
:10496000A2C325363105C8F19F3F19F09F5F909390
:104970006702112359F00E944D069FEF11160CF4A7
:1049800091E0899F802D112480937102002359F0BA
:104990000E944D069FEF10160CF491E0899F802D28
:1049A000112480937202309171023323B1F020916F
:1049B0007202222391F045EB3403C00111249923A4
:1049C00009F442C19093710245EB24039001112434
:1049D000332309F43DC13093720280916F029091AC
:1049E0007002892B90917102892B90917202892B10
:1049F00011F00E94120786E0FE013196ADE6B2E0AA
:104A000001900D928A95E1F70E94DA089091730265
:104A1000891721F00E94DA08809373028091AD0219
:104A2000843009F0A0CE83E08093E9008091E80013
:104A300082FF99CE8091E80090E085FF06C00E9439
:104A40003304882309F408C191E08091E8008B7752
:104A50008093E800992309F486CEE981E150E3319F
:104A600008F075C1F0E0E053F54D0C945F2980919A
:104A7000AD02843009F444C01092600288E190E0F5
:104A800020E40FB6F894A895809360000FBE2093A1
:104A9000600080E00E94800910928102809197025C
:104AA000811117C081E08093970280919102982F25
:104AB0009170909396028E7F809391029FEFE0E732
:104AC000F2E09150E040F040E1F700C000000E94A9
:104AD000790C83B7817F846083BF83B7816083BF94
:104AE0007894889583B78E7F83BF0FB6F894A89586
:104AF00080916000886180936000109260000FBE1A
:104B00008091A302882309F42ECE0E94E40EE2E8ED
:104B1000F2E08CE892E021913191232B09F097C2C9
:104B20008E179F07C1F71FCE6F5FAA0CBB1C6E309C
:104B300009F035CE0F5F1F4F0530110509F020CE6B
:104B40008FEF8EA38FA318A60E9406078160782F8F
:104B50009AA789A74EA15FA168A58AA50E94AB204C
:104B600045CE863059F4F0E0EE50F94FE4910E2F27
:104B700010E0B4EDAB2EBEE0BB2E52CE893061F416
:104B8000E695F0E0E151F94FE4910E2F10E0AEEA26
:104B9000AA2EACE0BA2E44CE8F3061F4E695F0E058
:104BA000E451F94FE4910E2F10E0F8EDAF2EFCE048
:104BB000BF2E36CE853159F4F0E0E751F94FE4913C
:104BC0000E2F10E0E6E4AE2EEDE0BE2E29CE08E278
:104BD00010E054E9A52E5DE0B52E883109F420CE11
:104BE000833241F4F6010591149177E6A72E7EE019
:104BF000B72E16CE04EF11E04DE1A42E4EE0B42EF8
:104C0000843209F40DCE00ED17E036ECA32E35E02A
:104C1000B32E853209F004CE8E2F63E00E941D2949
:104C2000E92FF0E0EC51F94FE4910E2F10E065E828
:104C3000A62E62E1B62EF4CD81E080936F0278CE8D
:104C400081E0809370027DCE81E080937102BCCEC2
:104C500081E080937202C1CE00E210E0CE010196A5
:104C60005C018091E80085FD0AC08091E8008B77A7
:104C70008093E8000E943304882399F3E5CE809165
:104C8000F100F50181935F010150110951F7DCCE6C
:104C90001A8289E08B831AC08A81823009F4FAC1B2
:104CA0008330C9F0813009F052C02FB7F894609179
:104CB0008C0270918D0280918E0290918F022FBF95
:104CC0000E9465296B837C838D839E83CE01019630
:104CD0000E948E0448CD8091820290918302982791
:104CE000892798279C838B838091840290918502E9
:104CF0009827892798279E838D838091860290919B
:104D0000870298278927982798878F838091880220
:104D1000909189029827892798279A878987809177
:104D20008A0290918B029827892798279C878B87E6
:104D3000CDCF8A81823059F46B817C818D819E81B7
:104D40000E94652985E290E00E94F829BFCF8FEF8D
:104D50008983BCCF4C816B818A810E94AB0F9827DD
:104D6000892798279E838D83B1CFAD80BE80BA24DA
:104D7000AB24BA248A810B81FCE10F9F80011124AE
:104D80002CE8829F000D111D11248C8190E0880F6A
:104D9000991F080F191F6B2DC80186960E94F829CC
:104DA0006A2DC8018796D0CF0E94D8118FCF8A81F3
:104DB000893091F08A30E1F08A81813869F108F513
:104DC000803809F083CF20E04B816091930280917D
:104DD00092020E94B3137ACF8B8143E0849FC0017B
:104DE0001124B7010E943729862F0E94A509E4CF1C
:104DF0008B81811103C00E943212DECF0E944812C3
:104E0000DBCF823859F1833809F060CF20E0409140
:104E100094026C818B81DDCF60E08B810E94A317AF
:104E20009B8180919102911111C08E7F809391029C
:104E3000109281028FEF90E7E2E081509040E040D5
:104E4000E1F700C000000E94790C40CF81608093A0
:104E5000910260E086950E94A31738CF8B818093E2
:104E6000950234CF8A81893059F08A30B9F081387F
:104E700031F1C8F4803809F029CF809194020ACF2B
:104E800080917F02869586958695FFEF8F9FC00162
:104E90001124B3010E9437296B8318CF80917F02C0
:104EA00086958170F7CE823891F0833809F00ECF65
:104EB000809192028B83809193028C8307CF8091A3
:104EC000910280FF02C08695E5CE80E0E3CE80911E
:104ED0009502E0CE80917F020E942D126091910296
:104EE0007091920280919302909194020E94A1137A
:104EF000EDCE80E18A83EACE81E08A838AEACACE57
:104F00000A811B81102701271027CE0101965C0121
:104F10008C80FC01E80DF11D4F01C8018A5A9D4F9C
:104F2000A814B90409F4D2CE0A3AF1E01F0750F4EC
:104F30000E94E429F50184830F5F1F4FFFEFAF1A32
:104F4000BF0AEBCFF5011482F7CF0A811B8110272E
:104F500001271027CE0101964C01AC80A00EB12E86
:104F6000B11CC8018A5A9D4FA016B10609F4AECEF5
:104F70000A3AE1E01E0720F4F40164810E94F82956
:104F8000FFEF8F1A9F0A0F5F1F4FEBCF0E945D123A
:104F90009DCE84E0AFCF0A811B8110270127102707
:104FA000CE0101965C018C80FC01E80DF11D4F01E2
:104FB000C8018696A814B90409F488CE0033F2E03B
:104FC0001F0750F40E94E429F50184830F5F1F4FEF
:104FD000FFEFAF1ABF0AECCFF5011482F7CF0A81B9
:104FE0001B81102701271027CE0101964C01AC80B0
:104FF000A00EB12EB11CC80186960A151B0509F436
:1050000065CE0033E2E01E0720F4F40164810E94C3
:10501000F829FFEF8F1A9F0A0F5F1F4FECCF80E038
:105020000E946D126FEF7FEF90E080E00E94162AE1
:105030004DCECE0101960E948E042FEF41EE84E00A
:10504000215040408040E1F700C00000EBCA80E101
:1050500089BD82E189BD09B400FEFDCF8091D800F1
:105060008F7D8093D8008091E00082608093E00083
:105070008091E00081FDFCCF76CB60E085E290E09E
:105080000E94F8290E94D8110E945D1281E00E94BE
:105090006D1204CB85E290E00E94E4291B821C8201
:1050A0001D828E8313CE2D32314008F05FCC95CC1B
:1050B0002D32314008F00ECC44CC78941F921FB6AC
:1050C0001F9211248F939F93AF93BF9380918C0273
:1050D00090918D02A0918E02B0918F020196A11D38
:1050E000B11D80938C0290938D02A0938E02B09399
:1050F0008F02BF91AF919F918F911F901FBE1F9004
:1051000018951F921FB61F9211248F939F93AF93F0
:10511000BF9380916002811113C080918C029091A5
:105120008D02A0918E02B0918F024196A11DB11DFA
:1051300080938C0290938D02A0938E02B0938F0285
:10514000BF91AF919F918F911F901FBE1F90189597
:105150001F920F920FB60F9211242F933F934F93EC
:105160005F936F937F938F939F93AF93BF93EF93CF
:10517000FF9380914F0290915002019668EB75E089
:105180000E9437299093500280934F026BE070E0A9
:105190000E9437296F7780914E02823041F460344B
:1051A00051F480916F008E7F80936F0004C0813036
:1051B00011F46F37B1F3E62FF0E0EC56FC4FE491B9
:1051C00021E031E0E29FC001E39F900D112463E0F4
:1051D00070E00E94372980917F028695869586959A
:1051E000282F269FC001279F900D11240E9443095C
:1051F00090938D0080938C00FF91EF91BF91AF91C0
:105200009F918F917F916F915F914F913F912F91DE
:105210000F900FBE0F901F901895DB018F939F93F7
:105220000E944B2ABF91AF91A29F800D911DA39F19
:10523000900DB29F900D11240895991B79E004C040
:10524000991F961708F0961B881F7A95C9F78095C5
:10525000089587FB082E062687FD819567FD6195D9
:105260000E941D290EF4919507FC81950895AA1BB3
:10527000BB1B51E107C0AA1FBB1FA617B70710F041
:10528000A61BB70B881F991F5A95A9F78095909573
:10529000BC01CD01089597FB072E16F4009407D0AA
:1052A00077FD09D00E94372907FC05D03EF4909580
:1052B00081959F4F0895709561957F4F0895EE0FEA
:1052C000FF1F0590F491E02D09946927962769271F
:1052D00078278727782708950E94802A332312F49D
:1052E0008A1B9B0B0C9476290E94802AB7FF089595
:1052F000821B930B08958F929F92AF92BF92CF9291
:10530000DF92EF92FF92CF93DF93EC016881798176
:105310008A819B81611571058105910521F464E203
:1053200079ED8BE597E02DE133EF41E050E00E940D
:105330002C2A49015A019B01AC01A7EAB1E40E9461
:105340004B2A6B017C01ACEEB4EFA50194010E94E5
:10535000592ADC01CB018C0D9D1DAE1DBF1DB7FF71
:1053600003C00197A109B04888839983AA83BB83AE
:105370009F77DF91CF91FF90EF90DF90CF90BF901C
:10538000AF909F908F9008950E947B29089580E0B0
:1053900091E00E947B290895B0E0A0E08093000195
:1053A00090930101A0930201B09303010895FC01C1
:1053B0004150504030F001900616D1F73197CF019F
:1053C0000895882799270895F999FECF92BD81BD48
:1053D000F89A992780B50895A6E1B0E044E050E03E
:1053E0000C941E2AA8E1B0E042E050E00C941E2A82
:1053F000262FF999FECF92BD81BDF89A019700B48E
:10540000021639F01FBA20BD0FB6F894FA9AF99A2D
:105410000FBE08950396272F0E94F9290E94F829AC
:10542000252F0E94F929242F0C94F9290196272F62
:105430000E94F9290C94F829DC01CB01FC01F999AF
:10544000FECF06C0F2BDE1BDF89A319600B40D92D0
:1054500041505040B8F70895052E97FB1EF4009474
:105460000E94432A57FD07D00E945E2A07FC03D002
:105470004EF40C94432A50954095309521953F4F1A
:105480004F4F5F4F089590958095709561957F4F30
:105490008F4F9F4F08950E94802AA59F900DB49F23
:1054A000900DA49F800D911D11240895B7FF0C94B9
:1054B0004B2A0E944B2A821B930B0895A1E21A2EBD
:1054C000AA1BBB1BFD010DC0AA1FBB1FEE1FFF1FA8
:1054D000A217B307E407F50720F0A21BB30BE40BF8
:1054E000F50B661F771F881F991F1A9469F760953F
:1054F0007095809590959B01AC01BD01CF010895F9
:10550000A29FB001B39FC001A39F700D811D112404
:10551000911DB29F700D811D1124911D0895F89465
:10552000FFCFC311C311CC11CC11CE11CC11CC11B2
:10553000CC11C311C311D311CC11CC11D311AB15A4
:10554000D3152616D315261606163E1626163B1715
:1055500048179A1B9A1B091C091C5F1C791CCF1B3E
:10556000CF1B841C5A1D691D691D47194F195119FC
:105570006D1981199919B019C11AE81AEF1AF41A9C
:10558000F91AFE1A031B081B0D1B121B171B1C1BF1
:105590001F1B241B271B2A1B2D1B301B331B361BD9
:1055A00048264C269926AA26B526D426D726322761
:1055B0006A270F28192879277C278027A527C6273F
:0655C000C927CB27EF27ED
:1055C6000100000001191A1B1C1D1E1F20212201AB
:1055D6000201C7051A0BF90AF50AF10A01000102D0
:1055E6000202020606060909090909090F0F0F0F2B
:1055F6000F0F151515181919191919191919191936
:105606002324252525252525818283E200E900EA34
:1056160000B500B600B700CD008301CC008A019228
:105626000194012102230224022502260227022ACE
:1056360002B300B4006F007000313233F0F1F4F7BA
:10564600F5F6676636353497969495934022814FE2
:0C565600012D01AC000B072407440700E5
:00000001FF
