:100000000C948F030C94D6030C94D6030C94D60353
:100010000C94D6030C94D6030C94D6030C94D603FC
:100020000C94D6030C94D6030C94B71F0C94731F36
:100030000C94B2200C94D6030C94D6030C94D603E3
:100040000C94D6030C94D6030C94D6030C94D603CC
:100050000C94D6030C948E200C94D6030C94D603E7
:100060000C94D6030C94D6030C94D6030C94D603AC
:100070000C94D6030C94D6030C94D6030C94D6039C
:100080000C94D6030C94D6030C94D6030C94D6038C
:100090000C94D6030C94D6030C94D6030C94D6037C
:1000A0000C94D6030C94D6030C94D60305010902D4
:1000B000A10185020901A1000509190129081500FE
:1000C0002501950875018102050109300931158165
:1000D000257F95027508810609381581257F9501D0
:1000E00075088106050C0A38021581257F95017572
:1000F000088106C0C005010980A101850319012AF4
:10010000B700150126B700950175108100C0050CD8
:100110000901A101850419012AA002150126A002E6
:10012000950175108100C00660FF0961A101096297
:10013000150026FF00952075088102096315002629
:10014000FF00952075089102C005010906A101056F
:100150000719E029E7150025019508750181029529
:1001600001750881010507190029FF150026FF0008
:100170009506750881000508190129059505750181
:100180009102950175039101C0000000000000007C
:10019000000000000000000000000000000000005F
:1001A000000000000000000000000000007E0F00C2
:1001B000D4FFFFFFC700000078000000000000002F
:1001C000002A2B28000000000000000000000000B2
:1001D0000000000029000000002C1E3420212224F1
:1001E000342627252E362D3738271E1F202122237F
:1001F0002425263333362E37381F04050607080911
:100200000A0B0C0D0E0F10111213141516171819D6
:100210001A1B1C1D2F3130232D3504050607080934
:100220000A0B0C0D0E0F10111213141516171819B6
:100230001A1B1C1D2F3130354C00047F3F1F6432C8
:1002400014643214783C1E1E140A050001010101D9
:100250000101010101020202020202020202030381
:100260000303030303030404040404040405050551
:100270000505060606060607070707070808080813
:10028000090909090A0A0A0B0B0B0C0C0C0D0D0DC0
:100290000E0E0E0F0F0F1010111111121213131456
:1002A00014151516161717181819191A1A1B1B1CCE
:1002B0001D1D1E1E1F202021222223242425262628
:1002C000272829292A2B2C2D2D2E2F30313232335D
:1002D0003435363738393A3B3C3D3E3F4041424366
:1002E0004445464748494A4C4D4E4F50515354554A
:1002F0005658595A5B5D5E5F616264656668696BFA
:100300006C6D6F7072737577787A7B7D7E80828377
:100310008587888A8C8E8F91939596989A9C9EA0BB
:10032000A2A3A5A7A9ABADAFB1B3B5B7BABCBEC0C8
:10033000C2C4C6C9CBCDCFD1D4D6D8DBDDDFE2E491
:10034000E7E9EBEEF0F3F5F8FAFDFFFFAA7F554081
:100350002223252628292A2C2D2F303233353638D2
:100360003A3B3D3E4042434547494A4C4E5051532B
:100370005557595A5C5E6062646668696B6D6F714F
:10038000737577797B7D7F81838587898A8C8E9051
:10039000929496989A9C9E9FA1A3A5A7A8AAACAE5A
:1003A000AFB1B3B4B6B8B9BBBCBEBFC1C2C3C5C69A
:1003B000C7C9CACBCCCDCED0D1D2D2D3D4D5D6D743
:1003C000D7D8D9D9DADADBDBDBDCDCDCDCDCDDDD81
:1003D000DDDDDCDCDCDCDCDBDBDBDADAD9D9D8D771
:1003E000D7D6D5D4D3D2D2D1D0CECDCCCBCAC9C713
:1003F000C6C5C3C2C1BFBEBCBBB9B8B6B4B3B1AF4A
:10040000AEACAAA8A7A5A3A19F9E9C9A98969492E9
:10041000908E8C8A89878583817F7D7B79777573C0
:10042000716F6D6B6968666462605E5C5A5957559E
:100430005351504E4C4A4947454342403E3D3B3A5A
:100440003836353332302F2D2C2A292826252322E1
:1004500029001E001F00200021002200230024008C
:100460002500260027002D002E002A002B00140056
:100470001A000800150017001C0018000C001200DC
:1004800013002F003000310039000400160007006F
:1004900009000A000B000D000E000F0033003400AD
:1004A00000002800E10000001D001B0006001900EC
:1004B000050011001000360037003800E50000008C
:1004C000E000E300E2000000000000002C0000005B
:1004D00000000000E600E7000151E4000100010017
:1004E0000100010001000100010001000100010004
:1004F00001000100010001000100010001000100F4
:1005000001000100010001000100010001000100E3
:1005100001000100010001000100010001000100D3
:1005200001000100010001000100010000000100C4
:1005300001000000010001000100010001000100B4
:1005400001000100010001000100000001000100A4
:100550000100000000000000010000000000000099
:100560000100010001000100010001000100010083
:100570000100010001000100010001000100010073
:100580000100010001000100010001000100010063
:100590000100010001000100010001000100010053
:1005A0000100010001000100010001000100010043
:1005B0000100010001000100000001000100000035
:1005C0000100010001000100010001000100010023
:1005D0000100010001000000010001000100000015
:1005E0000000000001000000000000000100010008
:1005F00001000100010001000100010001000100F3
:1006000001000100010001000100010001000100E2
:1006100001000100010001000100010001000100D2
:1006200001000100010001000100010001000100C2
:1006300001000100010001000100010001000100B2
:1006400001000100000001000100000001000100A4
:100650000100010001000100010001000100010092
:100660000100000001000100010000000000000086
:100670000100000000000000010001000100010075
:1006800009025B00030100A0FA0904000001030154
:100690000100092111010001224000070581030822
:1006A000000A0904010002030000000921110100F1
:1006B0000122220007058203200001070503032011
:1006C00000010904020001030000000921110100DA
:1006D00001227B000705840320000A1201000200AA
:1006E000000008E1AC49540100010200011003744C
:1006F000006900740061006E0036003000000018D0
:10070000034100630065006B006500790062006FC3
:100710000061007200640000000403090400112459
:100720001FBECFEFDAE0DEBFCDBF04B603FE27C0A9
:100730008091760290917702A0917802B09179022F
:100740008730904BA740B04BD1F4109276021092B4
:100750007702109278021092790214BE84B7877FD4
:1007600084BF0FB6F894A89580916000886180934B
:100770006000109260000FBEE0E0F8E3099511E020
:10078000A0E0B1E0EAE5FFE402C005900D92A239D5
:10079000B107D9F722E0A2E9B1E001C01D92A63766
:1007A000B207E1F70E94D9200C9474270C94000042
:1007B000E8EDF0E080818E7F80831092E20010925D
:1007C000DA001092E100A0EEB0E08C9181608C9391
:1007D00080818F77808319BCA7EDB0E08C918E7FEC
:1007E0008C9380818F7E808310925B02089520918C
:1007F000E4003091E50095E6A9012091EC00822FFC
:10080000817020FF06C08091E80080FF06C080E074
:1008100008952091E80022FD1AC080916802882383
:1008200089F0853089F08091EB0085FD0FC0209123
:10083000E4003091E50042175307F9F29150E1F6D8
:1008400084E0089582E0089583E0089581E00895AA
:10085000EF92FF920F931F93CF937C018B010E9425
:10086000F703C82F811117C08091E80085FD0BC0E8
:100870008091E8008E778093E8000E94F703882338
:1008800099F3C82F08C0F70181917F018093F1008F
:100890000150110949F78C2FCF911F910F91FF90B3
:1008A000EF90089580916A0287FF13C08091E8005D
:1008B00082FF06C08091E8008B778093E80004C037
:1008C000809168028111F2CF089580916802882397
:1008D000D9F38091E80080FFF8CF8091E8008E770F
:1008E000ECCF982F9093E900242F762F50E08917B2
:1008F00031F07091EC002091ED005091F00021FD5D
:1009000007C09F5F973071F78093E90081E00895F9
:100910003091EB003E7F3093EB003091ED003D7F56
:100920003093ED003091EB0031603093EB00709329
:10093000EC002093ED005093F0002091EE0027FD95
:10094000E0CF80E00895CF92DF92EF92FF920F9375
:100950001F93CF93DF93C8EDD0E088818F7E88838B
:10096000E7EDF0E080818160808384E082BF81E0F8
:1009700080935B0288818E7F888302EE10E0F8010D
:1009800010821092DA0081EEC82ED12CF60110826E
:1009900088818F77888388818068888388818F7D2C
:1009A000888319BC10926802109269021092670243
:1009B0001092660290EEE92EF12CF70180818B7F78
:1009C000808388818160888342E060E080E00E94CB
:1009D0007104F60180818E7F8083F80180818160BF
:1009E0008083808188608083F70180818E7F80830F
:1009F000888180618883DF91CF911F910F91FF9053
:100A0000EF90DF90CF900895FC018091700290915B
:100A1000710286179707A0F06115710529F490916E
:100A2000E8009E779093E80090E06115710551F41D
:100A3000911108C08091E80082FF34C080E00895E1
:100A4000BC01F2CF809168028823C1F18530C1F1E9
:100A50008091E80083FD30C08091E80082FDEACFFC
:100A60008091E80080FFE1CF8091F3002091F200B7
:100A7000382F6115710519F02830310558F091E0D3
:100A80002830310509F090E02091E8002E7720937E
:100A9000E800CBCF81918093F100615071092F5F05
:100AA0003F4FE7CF80916802882341F0853041F0C5
:100AB0008091E80083FFBECF81E0089582E0089531
:100AC00083E0089580915D0208959C014FB7F894EA
:100AD0008091540290915502A0915602B091570214
:100AE0004FBF821B930B08952FB7F8948091540247
:100AF00090915502A0915602B09157022FBF0895D0
:100B000020915102309152022817390771F09093C9
:100B1000520280935102E0914F02F09150023097BF
:100B200021F00084F185E02D0994089520914D0273
:100B300030914E022817390771F090934E0280933E
:100B40004D02E0914F02F0915002309721F0068063
:100B5000F781E02D09940895E0914F02F091500241
:100B6000309721F00190F081E02D099480E0089504
:100B7000FA01811101C0FB01099408958091480296
:100B8000982F9E7F29F48170826080934802089597
:100B90008A34E8F381708864F8CFAF92BF92DF9215
:100BA000EF92FF920F931F93CF93DF93082F162F8F
:100BB000E901E42FF0E0E55BFD4F611110C0E49125
:100BC0005E2F4E2F4983E8835A83DF91CF911F9187
:100BD0000F91FF90EF90DF90BF90AF900895E62EB9
:100BE000F12C4491D42EE42FF0E026E0829FC00146
:100BF00011242FEF30E0B9010E947E26802F90E073
:100C0000880F991F55E5569FD001579FB00D1124AD
:100C10008A1B9B0B982F990F890F5901AE18BF089B
:100C2000AE9ED001AF9EB00DBE9EB00D11245B2FC5
:100C3000189F80011124012F11275901A01AB10A10
:100C4000AE9E8001AF9E100DBE9E100D1124590165
:100C5000A81AB108AE9CC001AF9C900DBE9C900D2F
:100C60001124892F9927281B390B2E9FC0012F9FF4
:100C7000900D3E9F900D1124E92F62307105A1F077
:100C800050F46115710509F49DCF6130710581F053
:100C9000EB2F512F97CF6430710569F080F06630EB
:100CA000710509F48FCFF4CFE42F4B2F592F8ACF42
:100CB000E42F412F87CFEB2F542F492F83CF4B2F7A
:100CC0005D2DE12F7FCF0E9474059C01909127023A
:100CD00080912802982B21F0309324022093230244
:100CE0009091290280912A02982B21F030932202C0
:100CF00020932102E0914F02F0915002309749F089
:100D000082E0809325020480F581E02D85E292E067
:100D10000994089540912702803F59F48091280258
:100D200087FF0DC01092280241110BC010921F02C4
:100D300008C0813F81F48091280218169CF3442357
:100D400081F08091290290912A02892B09F05AC0E2
:100D500010921E020895823F49F447FFF0CF10928F
:100D60002702809128028111ECCFE0CF833F19F454
:100D70001416ACF3E4CF90912902893F29F4191697
:100D8000F4F610922902DBCF8A3F19F497FFD7CFF0
:100D9000F8CF90912A028B3F29F497FFD0CF109281
:100DA0002A02CDCF8C3F19F41916CCF3C8CF9CE0A2
:100DB000980F953090F4845F990B21E030E0B901F1
:100DC00002C0660F771F8A95E2F7CB01809590915C
:100DD0002602892380932602B2CF8D3F31F4809181
:100DE00020028E7F80932002AACF8E3F21F4809133
:100DF00020028D7FF7CF8F3F09F0A1CF8091200295
:100E00008B7FF0CF08958091200280FD16C081FD78
:100E100016C082FD16C080911E028823A1F0883280
:100E200080F428E0829FC001112468E270E00E94F3
:100E30009226862F672B39F0089582E0089584E08A
:100E4000089588E0089581E008958091200280FD52
:100E500014C081FD14C082FD16C080911F0288233A
:100E600081F0843180F422E3829FC001112464E187
:100E700070E00E949226862F08958CE0089589E103
:100E8000089585E0089582E30895803F31F40E943B
:100E900025078195809328020895813F19F40E94C7
:100EA0002507F8CF823F31F40E9425078195809372
:100EB00027020895833F19F40E942507F8CF893F40
:100EC00029F40E9403078093290208958A3F21F4A0
:100ED0000E9403078195F7CF8B3F31F40E940307EF
:100EE000819580932A0208958C3F19F40E9403078C
:100EF000F8CF9CE0980F953070F4845F990B21E057
:100F000030E001C0220F8A95EAF780912602822BF9
:100F10008093260208958D3F31F4809120028160F4
:100F20008093200208958E3F21F4809120028260F8
:100F3000F7CF8F3FB9F7809120028460F1CF80E036
:100F40000895F894E82FE295EF70F0E031A1282F92
:100F50002F7081E090E001C0880F2A95EAF7982F62
:100F60009095932391A392A1892B82A378940895BD
:100F70009091F90192FF06C0282F28712830F9F4CA
:100F8000877F846093FF06C0282F28712831F1F4F1
:100F9000877E84612091FA0120FF06C0382F3871C6
:100FA0003830D9F4877F816021FF06C0282F28714F
:100FB0002831D1F4877E816194FD877E0895282FA2
:100FC00024712430F9F68B7F8860DCCF282F2471C0
:100FD000243101F78B7E8861DDCF382F31713130BC
:100FE00019F78E7F8860E0CF282F2171213121F7FA
:100FF0008E7E8861E1CFCF93DF93EC01823891053B
:10100000A9F1D8F58133910509F496C048F58932E4
:10101000910509F48AC08A9709F495C0C11521E5A4
:10102000D20708F0BCC0C11530E5D30708F014C1E1
:10103000C83ED10508F09CC0C03ED10560F5C83A55
:10104000D10508F087C0C53AD10508F0FDC0C13010
:10105000D10509F12097F9F0C430D105E0F440C082
:101060008533910509F45AC0C997C1F68091F901F9
:10107000837089F0C0EED0E00EC0833E910599F1F7
:1010800070F4803E910501F1823E910539F6809120
:10109000F90182FD21C0CE01DF91CF910895863EF6
:1010A000910561F1873E910571F1843E910509F04A
:1010B000B5CF8091FA0181FFEECF8091F901C7EEA3
:1010C000D0E084FD0DC0E7CF8091F90180FD12C111
:1010D0009091FA0190FFDFCFC3EED0E084FFDBCF29
:1010E000D0E0C0E0D8CF8091F90182FD06C1909197
:1010F000FA0190FDBFCF84FFCECFF2CF8091F901EE
:1011000083FDDDCFC8CF8091F90183FDF9C09091B7
:10111000FA0191FFF0CFC4EED0E0BDCF8091F9018C
:1011200085FFB9CFC9E2D0E0B6CF8091F90185FF44
:10113000B2CFC5E3D0E0AFCF8091F90186FFABCF4E
:10114000CAE2D0E0A8CF8091F90186FFA4CFC1E325
:10115000D0E0A1CFCF3BD10518F6C85AD0E0CC0FD4
:10116000DD1FC45EDE4F0990D881C02DD46493CFBB
:10117000C11540E2D40758F4C11581E0D80708F042
:101180008ACFC03FD10508F4ABCFD06584CFC1155D
:1011900090E4D90708F4A4CFDF70D06A7CCFC115E2
:1011A00025E5D20700F5C11534E5D30708F08AC05C
:1011B000C11543E5D40708F071C0C11582E5D80711
:1011C00008F467C0CE018370992721E030E002C0A7
:1011D000220F331F8A95E2F7C695C69580E2C89F15
:1011E000E001112452C0C11599E5D907A8F4C11531
:1011F00028E5D20708F06BC0C11536E5D30708F023
:101200006FCF8C2F0E94B807C82FD0E0DC2FCC27DF
:10121000CC27DF71D0623FCFC1154AE5D40708F46F
:101220005BC0CE0190568115904208F059CF8D2FAA
:101230008F710E94B80790E0982F882788279F71A8
:101240009C012C2BE901E6CFC55AD0E0C75EDE4FEA
:10125000C881D0E0D0641FCFCE01E4E09695879599
:10126000EA95E1F783702C2F26952695237040E2AE
:10127000249F90011124382B8C2F8370C1E0D0E083
:1012800002C0CC0FDD1F8A95E2F7C22BD32BDC689E
:1012900002CFDC2FCC27C16FD06AFDCECE01837088
:1012A000992721E030E002C0220F331F8A95E2F730
:1012B000C695C69590E2C99FE0011124C22BD32B9D
:1012C000DA68E9CEDC2FCC27C46FD06AE4CEDC2FFD
:1012D000CC27C06FD06ADFCE8C2F8F700E94B807EA
:1012E00034E0D695C7953A95E1F7CF709C2FEC0185
:1012F000D069D1CEC9E3D0E0CECEC2EED0E0CBCE25
:10130000C6EED0E0C8CE8091F40181111092F401B4
:1013100008958091F3019091F201892B9091F10150
:10132000892B809394019091F401992391F0892B5A
:101330008093940120E086E991E0FC013191CF0196
:1013400031112F5FF1E08C399F07B9F721110E940D
:101350008309E0914F02F0915002309731F0028002
:10136000F381E02D84E991E009940895E6E9F1E044
:101370009191891303C0DF0111971C9291E0EC3920
:10138000F907B1F70895A6E9B1E0EFEF90E02D91EC
:10139000821751F0EF3F19F4211101C0E92F9F5F2F
:1013A0009630A9F7EF3F09F408950E2E000CFF0BBD
:1013B000EC56FE4F828308958091EF019091BE011B
:1013C000981301C008958F5F8770FACF2EE0929F27
:1013D000800D1124982F977086958695869523E029
:1013E000829FF0011124E356FE4F50E040E080E080
:1013F000219130E0092E02C0369527950A94E2F734
:1014000021703327042E01C0220F0A94EAF7822BA1
:101410004F5F5F4F4330510559F708952EE0929F7B
:10142000800D1124982F977041E001C0440F9A95C8
:10143000EAF786958695869593E0899FF0011124B9
:10144000E356FE4F90E080E070E05191DF0111978C
:101450009B01082E02C0369527950A94E2F7217069
:1014600021952527242325272C9301968330910548
:1014700061F7089590E080E00E94960590E080E09A
:101480000E9480051092F2011092F1010E948909D8
:1014900086E0E5E2F2E0DF011D928A95E9F710921D
:1014A0001F0210921E02109220020C946306809379
:1014B00075020C943A0A80917502982F96709630B6
:1014C00019F488600C94570A877FFCCF21E030E044
:1014D00001C0220F8A95EAF7209580917502822338
:1014E0000C94570A9091F001809589238093F00124
:1014F000282F277039F4282F082E000C330B921751
:10150000130621F49091FA0192FF07C08595859505
:1015100085950E94660A1092F001089521E030E05E
:1015200001C0220F8A95EAF780917502822B0C94F4
:10153000570A8093F5010C943A0A882341F080956C
:101540009091F30189238093F3010C948909089504
:10155000882339F09091F301982B9093F3010C9428
:1015600089090895882309F459C0823871F40E94CA
:10157000AC0581FF53C089E30E94C3090E94890919
:1015800089E30E94B6090C948909833859F40E94B2
:10159000AC0580FF43C083E50E94C3090E9489090E
:1015A00083E5EFCF843859F40E94AC0582FF36C042
:1015B00087E40E94C3090E94890987E4E2CF9CEF77
:1015C000980F913AF0F290E2980F983088F4877073
:1015D00021E030E0A90102C0440F551F8A95E2F7CF
:1015E000CA0180959091F30189238093F301CBCFB9
:1015F0009BE5980F933020F490E080E00C949605E2
:1016000098E5980F973120F490E080E00C948005E5
:10161000803F20F00E948A060C946306089581FFA3
:1016200002C02F9A08952F980895909168029430DF
:1016300029F58093580270935A026093590290934F
:10164000E9008FEF9091E800815095FD06C095ED7F
:101650009A95F1F700008111F5CF8091E80085FFA0
:101660000DC050E040E063E070E088E592E00E9449
:1016700028048091E8008E778093E8000895BC01EB
:1016800084E00C94150BBC0183E00C94150B9C01B9
:1016900084E08093E9009FEF8091E800915085FD00
:1016A00006C085ED8A95F1F700009111F5CF809184
:1016B000E80085FF0CC050E040E066E070E0C90142
:1016C0000E9428048091E8008E778093E8000895B6
:1016D000CF93DF93EC0181E08093E9008FEF90914D
:1016E000E800815095FD06C095ED9A95F1F7000050
:1016F0008111F5CF8091E80085FF14C050E040E0F3
:1017000068E070E0CE010E9428048091E8008E77A6
:101710008093E80088E0FE01AEE5B2E001900D9212
:101720008A95E1F7DF91CF91089581E08093E00001
:1017300080E28093D8001092C9008FE19EE4019767
:10174000F1F700C0000087E090EBDC0180937602A7
:1017500090937702A0937802B093790288E19CE09D
:101760000FB6F894A895809360000FBE9093600028
:10177000FFCF8091480280FD0AC0E6E3F2E01182CB
:1017800010821282339652E0E834F507C1F7509A7E
:101790003BB13E7F2BB121604FB7F89486E392E0D6
:1017A000FC015191CF0168E02BB9000000C057FF48
:1017B0003BB9550F000000C000C000C03BB900C0DD
:1017C0006A9591F7F2E088349F0751F74FBF8FE594
:1017D00094E00197F1F700C000000895EF92FF92A6
:1017E0000F931F93CF93DF938C01C6E3D2E0F12CCC
:1017F000E12CF801948160914A0280914902F3E062
:10180000EF16F104FCF49923F9F09E0140914B028C
:101810000E94CD052FEFE21AF20A239686E0E81621
:10182000F10439F70E94B90BF801848190E0019628
:10183000817099278483DF91CF911F910F91FF9041
:10184000EF900895992309F39E0140E0E1CF8F9234
:101850009F92AF92BF92CF92DF92EF92FF920F933F
:101860001F93CF93DF93EC014C81042F10E098017C
:10187000D8010E94DD269B01AC010E94F3264B019A
:101880005C01E0E2F0E0E01BF10BA5E5B0E0AC01AB
:101890009B010E94F3266B017C019F01DF010E94E6
:1018A000D5269B01AC010E94FE269B01AC01280DB0
:1018B000391D4A1D5B1DC701B6010E94A626F22EE6
:1018C000822F90E039E23F15D8F143E0249F900148
:1018D000112435952795122F109596E3C92E92E085
:1018E000D92E00E085E5E82EEF188E2D01FD8F2D15
:1018F0009601412F60914A020E94CD050F5F53E08F
:10190000C50ED11C063089F70E94B90B9C8181E07D
:10191000992319F0903219F48FEF80931701809179
:101920001701890F8C83DF91CF911F910F91FF9049
:10193000EF90DF90CF90BF90AF909F908F900895E1
:1019400025E530E0A901481B590BCA019A01220F75
:10195000331F280F391F37FFBCCF2F5F3F4FB9CF41
:101960000F931F93CF93DF93C6E3D2E0FE01118262
:1019700010821282339682E0E834F807C1F710E053
:1019800000E080913402082E000C990B081719070B
:101990008CF180911601082E000C990B801791078D
:1019A0004CF19E0140914B0260914A0280914902A4
:1019B0000E94CD050F5F1F4F23960630110509F7D2
:1019C0000E94B90B8091150190913402980F909369
:1019D000340220911601280F20931601121614F4D8
:1019E00095301CF0819580931501DF91CF911F9167
:1019F0000F910895198218821A82DCCFBF92CF927C
:101A0000DF92EF92FF920F931F93CF93DF93FC012E
:101A10008281DD24DA9480FD02C0DD24D39406E3C4
:101A200012E0D0E0C0E026E0B22EF8011182108270
:101A3000128294E0E92EF12CC12C809133028C0D9E
:101A400087300CF43DC06B2D0E947026892F082E24
:101A5000000C990B8C179D0791F480914B028E9D81
:101A6000A0018F9D500D112455954795559547958B
:101A7000980160914A02809149020E94CD05CD0CE7
:101A8000F1E0EF1AF108C9F621960D5F1F4FC6303D
:101A9000D10559F60E94B90B8091330291E0D91219
:101AA00015C0811111C085E080933302DF91CF9181
:101AB0001F910F91FF90EF90DF90CF90BF9008950E
:101AC00087FFC5CF8A5FC3CF8150EECF90E00196EC
:101AD000BE010E949226E8CFEF92FF921F93CF9310
:101AE000DF93EC0186E3E82E82E0F82E10E08C8193
:101AF000970140914B0260914A02810F0E94CD05EF
:101B0000165D83E0E80EF11C1C3F89F70E94B90BBB
:101B10009A818C8190FF08C08F5F8C83DF91CF9179
:101B20001F91FF90EF9008958150F7CF9091480258
:101B300090FF0CC0E6E3F2E081836083428333963A
:101B400092E0E834F907C1F70C94B90B08950F93AC
:101B50001F93CF93DF9300D00F92CDB7DEB78C01E8
:101B60008091350281110AC09E012F5F3F4F4FEFD8
:101B70006FEF0E94CD058A8180933502F801648160
:101B8000613069F08091350240E0662361F040E009
:101B9000623011F44091350280E060E004C0609151
:101BA000350240E080E00E94960DF801848190E0CB
:101BB000019663E070E00E94922684830F900F905C
:101BC0000F90DF91CF911F910F910895CF93DF93E5
:101BD00000D00F92CDB7DEB79091480290FF0AC0B7
:101BE0009E012F5F3F4F0E94CD054B8169818A8105
:101BF0000E94960D0F900F900F90DF91CF91089556
:101C0000CF93DF93EC01E8E4F2E0438162818C81C1
:101C10000E94E60D8C818F5F8C83DF91CF910895B8
:101C2000CF93DF93EC01EC81F0E0E05BFC4F44915B
:101C3000E8E4F2E0628181810E94E60D8C818F5F91
:101C40008C83DF91CF910895CF93C82F882309F417
:101C500090C08238C1F40E94AC0581FD8AC089E33E
:101C60000E94C3090E9489092FEF81EE94E0215060
:101C700080409040E1F700C0000089E30E94B6096F
:101C8000CF910C9489098338A1F40E94AC0580FDA2
:101C900070C083E50E94C3090E9489092FEF81EE7D
:101CA00094E0215080409040E1F700C0000083E5BF
:101CB000E5CF8438A1F40E94AC0582FD5AC087E4C8
:101CC0000E94C3090E9489092FEF81EE94E0215000
:101CD00080409040E1F700C0000087E4CFCF8CEF58
:101CE0008C0F813A68F4E6E9F1E08191C817D9F1E7
:101CF00021E0EC39F207C9F78C2F0E94C309C0CF4D
:101D000080E28C0F883068F4C77021E030E001C0B9
:101D1000220FCA95EAF78091F301822B8093F30199
:101D2000AFCFEBE5EC0FE33040F4F0E0E75EFE4FC1
:101D3000808190E0CF910C949605E8E5EC0FE731B7
:101D400050F4F0E0EE0FFF1FE45EFE4F80819181C2
:101D5000CF910C948005C03F60F08C2F0E94450706
:101D6000CF910C9463068C2F0E94B6090E948909BA
:101D7000C3CFCF9108951F93CF93DF93182FD0E057
:101D8000C0E0893311F4C0E5D0E0812F0E94240E19
:101D9000209731F4812FDF91CF911F910C94B20ADB
:101DA0008FE99FE00197F1F700C000002197F0CF85
:101DB0000F931F93CF93DF93C62FD42F022FFC01D5
:101DC00082818823A1F0609374020E94740590932D
:101DD000730280937202C77081E001C0880FCA95B8
:101DE000EAF7DF91CF911F910F910C94A80A80918F
:101DF0007402681335C080917202909173020E9440
:101E00006505883C910560F510E21D0FCD17B9F00E
:101E100080E28C0F883040F4C77081E001C0880FE9
:101E2000CA95EAF70E949D0A183048F481E09D2F78
:101E3000977001C0880F9A95EAF70E94A80A802F30
:101E40000E94BB0E183098F4D77081E001C0880F53
:101E5000DA95EAF7DF91CF911F910F910C949D0ACB
:101E6000C77081E001C0880FCA95EAF7F3CFDF9110
:101E7000CF911F910F910895CF93DF93C7E5D2E0E3
:101E800060E0CE010E9426272196C11584E0D80784
:101E9000B9F7DF91CF9108956F927F928F929F92C1
:101EA000AF92BF92CF92DF92EF92FF920F931F9368
:101EB000CF93DF9380E5C82E84E0D82E9FECE92EE7
:101EC000F12CE701CC58D10936011BC0F5018590F2
:101ED0009490692DC8010E942627682DC80101969B
:101EE0000E94262782E0A80EB11C0E5F1F4FC0176C
:101EF000D10761F78CE1680E711C6C96CE15DF0579
:101F000029F08E010C5111095301E0CF7E018CE8BC
:101F1000E80EF11C8CE8C80ED11C8FEFE81682E0A9
:101F2000F80679F6DF91CF911F910F91FF90EF9016
:101F3000DF90CF90BF90AF909F908F907F906F90E9
:101F40000895CF93C82F6FEF811161E283E290E093
:101F50000E9426276FEFC11169E084E290E00E94A1
:101F600026276FEFC11161E185E290E0CF910C94DB
:101F7000262780E00E94A10F60E086E290E00E94A8
:101F800026270E944C0F0E943C0F81E00C94A10F69
:101F9000CF93C091FA01C2FB992790F9981781F06D
:101FA00080FBC2F9C093FA016091F90184E090E0EE
:101FB0000E9426276C2F82E290E0CF910C94262776
:101FC000CF9108950F931F93CF93DF93C42FD0E049
:101FD000CC0FDD1F2CE1629FC00DD11D11243CE808
:101FE000839FC00DD11D1124CE0187960E94122718
:101FF000082F10E0102F0027CE0188960E9412278C
:102000009801282BC901DF91CF911F910F9108955D
:10201000462F843038F4753028F46E3018F4672F6A
:102020000C94E20F90E080E00895CF92DF92FF924F
:102030000F931F93CF93DF936C01009175028091F2
:10204000F501082BC7E0D0E010E0FC2EC8010C2EF3
:1020500002C0959587950A94E2F780FD0CC0219700
:10206000A0F7F12C8F2DDF91CF911F910F91FF9051
:10207000DF90CF900895B6018C2F0E9408100E9427
:10208000FB07019761F3EECFCF93DF93EC010E9442
:102090001510BE010E940810DF91CF910C94FB0730
:1020A000FC01808191810E944410292F2F7092950C
:1020B0009F7092509E3078F4E92FF0E0EA58F84D86
:1020C0000C94C826803F19F020F4883E20F481E06B
:1020D0000895843FE1F380E00895883EC0F3813F96
:1020E000D1F7F5CF822F869586958695089583E260
:1020F00090E00E941227813289F484E290E00E94ED
:102100001227893059F485E290E00E94122791E06D
:10211000813109F090E0892F8170089580E0FCCF33
:10212000CF9384E090E00E941227C82F82E290E0D3
:102130000E941227982F8C2FCF910895609148020A
:10214000669570E04BE050E08AE091E00E945A27EB
:10215000892B19F481E0809332020E9474059093D8
:102160002C0280932B020895CF92DF92EF92FF9280
:102170006B017C010E94BE05B701A60188E090E0DA
:10218000FF90EF90DF90CF900C9438275F926F9282
:102190007F928F929F92AF92BF92CF92DF92EF92F7
:1021A000FF920F931F93CF93DF9300D00F92CDB781
:1021B000DEB7182F762E042F622E9091480290FFE2
:1021C00029C0E92FE695AE2FB0E0A35ABE4F8C91FF
:1021D000809331029E7F923081F59E012F5F3F4FA9
:1021E000812F0E94CD054B8169818A810E94960DC5
:1021F0001093490270924A0200934B02662051F0FC
:10220000609148027091490280914A0290914B027C
:102210000E94B4100F900F900F90DF91CF911F91FB
:102220000F91FF90EF90DF90CF90BF90AF909F9075
:102230008F907F906F905F900895823019F4009195
:102240004B02D6CF863019F410914902D1CF893094
:10225000D9F3893169F6E9518E2F8170582EE695B0
:10226000F0E0E55BFC4FA590B490BB2486E3E82E3C
:1022700082E0F82ED12CC12C96E0892E912CC6013B
:10228000B4010E947E26812F511013C0860F970142
:10229000402F672D0E94CD05CA0CDB1C83E0E80EA1
:1022A000F11C88E4E81682E0F80649F70E94B90BB1
:1022B0009FCF861BECCFE8E4F2E0438128E0421B8D
:1022C00008F440E021E0628181810C94C610E8E4CA
:1022D000F2E0438128E0420F08F44FEF21E06281F1
:1022E00081810C94C610E8E4F2E0628128E0621B70
:1022F00008F460E021E0438181810C94C610E8E499
:10230000F2E0628128E0620F08F46FEF21E0438180
:1023100081810C94C610E8E4F2E0818121E04381E0
:10232000628188500C94C610E8E4F2E0818121E0DB
:1023300043816281885F0C94C61080914C0288238F
:1023400019F0815080934C026091480270914902CB
:1023500080914A0290914B020C94B41080914C02EF
:10236000833018F48F5F80934C0260914802709123
:10237000490280914A0290914B020C94B4109091C2
:10238000480290FF36C09170811129C092609093ED
:102390004802662351F06091480270914902809191
:1023A0004A0290914B020E94B410609148026695D7
:1023B00070E04BE050E08AE091E00E945A27892BC0
:1023C000A9F01092320281E080932E0220E0409129
:1023D0004B0260914A02809149020C94C6108532EA
:1023E00010F09864D4CF880F982BD1CF0E949E1004
:1023F000EACF0895809148028695815009F484E2DD
:1024000061E00C94BF118091480286958F5F853200
:1024100008F081E061E00C94BF119091480290FFB8
:1024200007C09695981720F0961710F40C94031295
:1024300061E00C94BF11E8E4F2E083E08083118254
:102440008FEF828383831482608171818281938183
:102450000C94B41069EE7EEF90E080E00E94442777
:1024600060E082E090E00E94262760E083E090E058
:102470000E9426271092F50160E084E090E00E941F
:10248000262760E082E290E00E94262760E085E057
:1024900090E00E94262760E086E090E00E942627D8
:1024A0006FEF87E090E00E94262740E050E0BA01FD
:1024B00088E090E00E94382760E08DE090E00E9484
:1024C000262740E050E0BA0188E190E00E943827DA
:1024D00060E087E190E00E94262740E050E0BA01EA
:1024E0008CE190E00E94382770E060E080E290E0AC
:1024F0000E94442740E050E0BA0188E190E00E9449
:10250000382780E00E94A10F0E94B90F40E050E000
:10251000BA018FE090E00E94382740E050E0BA0115
:1025200083E190E00C9438276F927F928F929F9274
:10253000AF92BF92CF92DF92EF92FF920F931F93D1
:10254000CF93DF93CDB7DEB72A970FB6F894DEBFEF
:102550000FBECDBF8E010F5F1F4F8AE0F8011192B1
:102560008A95E9F78AE4E82E81E0F82E68019FE475
:10257000692E91E0792E88248394912CF701819122
:102580007F018F3F09F44BC0F894E82FE295EF707C
:10259000F0E021A18F70A40102C0440F551F8A955D
:1025A000E2F7CA01922F982B91A392A180958923DB
:1025B00082A3789400C0EFE4F1E030E020E0B12C99
:1025C000A12C81918F3F09F484C0A82FA295AF70F0
:1025D000B0E090964C9150E08F7002C055954795B1
:1025E0008A95E2F740FD75C0C401022E02C0880F33
:1025F000991F0A94E2F7A82AB92A2F5F3F4F2E307D
:102600003105F9F6F701319780818F3F11F00E9473
:10261000A10750EA5A95F1F7F601B182A082F2E0E3
:10262000CF0ED11C6E147F0409F0A8CF4AE050E011
:10263000B8018BEF91E00E946727FF24F394009785
:1026400009F4F12C892B09F447C08AE0F801ABEFBB
:10265000B1E001900D928A95E1F781E08093F80155
:102660000E9474059093F7018093F6018091F60122
:102670009091F7010E946505059790F18091FB010B
:102680009091FC0190931502809314028091FD01BA
:102690009091FE0190931702809316028091FF01A2
:1026A0009091000290931902809318028091010288
:1026B0009091020290931B0280931A028091030270
:1026C0009091040290931D0280931C021092F801D5
:1026D00007C090E080E08FCF8091F8018111C6CFD4
:1026E0008F2D2A960FB6F894DEBF0FBECDBFDF91B7
:1026F000CF911F910F91FF90EF90DF90CF90BF90FF
:10270000AF909F908F907F906F90089590E080E0C1
:102710000E942027893E9E4F11F40C94771080E090
:1027200008951092F301E6E9F1E086E0DF011D92E1
:102730008A95E9F70C943A0A1F93CF93DF93CDB7AC
:10274000DEB7AA970FB6F894DEBF0FBECDBF8AE6FC
:1027500092E02091F100DC012D93CD01B2E08237AF
:102760009B07B9F780916B02833009F471C0B8F40C
:10277000813009F448C0823009F4B2C08091E80089
:1027800083FF3AC180916A0290916B029A3008F0FF
:1027900033C1E92FF0E0EC57F84D0C94C8268A308D
:1027A00009F48DC08B3009F470C0893039F78091FD
:1027B0006A02813219F780916E0290916F02009740
:1027C00011F00297D9F68091E800877F8093E800A6
:1027D0008091E80082FF37C09091F3008091F20071
:1027E000029729F48091F1008B7F813021F4809150
:1027F000F10080935D028091E8008B778093E80080
:102800000E945204BBCF80916A02813A09F0B6CF90
:102810008091E800877F8093E80080916E0290911C
:102820006F02892B61F468E08EE592E070E00E940F
:1028300004058091E8008B778093E8009FCF60E0EB
:1028400090E080E0F3CF809168028111C1CF96CFF4
:1028500080916A02813A09F091CF80916E02909145
:102860006F02892B09F08ACF8091E800877F8093DF
:10287000E8008091E80080FFFCCF809118018093F0
:10288000F1008091E8008E77B9CF80916A028132A1
:1028900009F074CF80916E0290916F02892B09F03C
:1028A0006DCF8091E800877F8093E8000E945204FA
:1028B00080916C02809318010E9491135FCF8091E8
:1028C0006A02813209F05ACF8091E800877F8093B5
:1028D000E8000E94520480916D0280935C024ECF0A
:1028E00080916A02813A09F049CF8091E800877FA0
:1028F0008093E8008091E80080FFFCCF80915C022B
:10290000BECF803899F0823809F076C080916E028F
:102910008F70873008F070C08093E9008091EB00E1
:1029200085FB882780F91092E90006C08091660235
:1029300090916702911182609091E800977F909347
:10294000E8008093F1001092F1008091E8008E770A
:10295000B5C1882309F4A2C1823009F04DC080912D
:102960006C028111A6C180916E028F702FEF280F2B
:10297000263008F041C08093E9002091EB0020FF51
:1029800098C1933031F48091EB0080628093EB002A
:1029900090C19091EB0090619093EB0021E030E0CA
:1029A00001C0220F8A95EAF72093EA001092EA000C
:1029B0008091EB008860EACF81111EC010916C02FB
:1029C0001F778091E3008078812B8093E3008091D2
:1029D000E800877F8093E8000E9452048091E8001D
:1029E00080FFFCCF8091E30080688093E30082E069
:1029F000111183E0809368028091E80083FF0AC090
:102A00008091E800877F8093E8008091EB008062EE
:102A10008093EB00AA960FB6F894DEBF0FBECDBF31
:102A2000DF91CF911F9108958058823028F720912F
:102A30006C0230916D022C3DE3E03E07A1F583E08E
:102A40008A838AE289834FB7F894DE01139620E0E7
:102A50003EE051E2E32FF0E050935700E49120FF75
:102A600003C0E295EF703F5FEF708E2F90E0EA3089
:102A7000C0F0C7968D939D932F5F243159F74FBFB8
:102A80008091E800877F8093E8006AE270E0CE01E1
:102A900001960E9404058091E8008B778093E800FE
:102AA000ABCFC096E7CF80916E0290916F02432F1B
:102AB00055274330510509F44AC078F54130510596
:102AC00009F47AC08BE590E0E0E8F6E04230510589
:102AD00009F092CF2091E800277F2093E800209111
:102AE0007002309171028217930708F49C0140E054
:102AF0002115310509F065C0411163C08091E800DE
:102B000082FDC9CF80916802882329F2853019F2AD
:102B10008091E80083FFF2CFBECF4132510509F426
:102B20003CC04232510509F067CF8330910508F06F
:102B300063CFFC01EE0FFF1FEB57FE4F0190F081BA
:102B4000E02D8E579E4FDC018C9190E01AC0332708
:102B500021303105D1F02115310561F022303105E8
:102B600009F04ACFEDEEF6E0E4918E2F90E0EDEE25
:102B7000F6E007C0E9E1F7E0E4918E2F90E0E9E1AB
:102B8000F7E0009709F438CFA5CFEFEFF6E0E49136
:102B90008E2F90E0EFEFF6E0F4CF8330910508F050
:102BA0002BCF880F991FFC01E557FE4F0190F08154
:102BB000E02D89E090E08ECF82E190E0EBEDF6E051
:102BC00089CF80916802882309F465CF853009F4A4
:102BD00062CF8091E80083FD5ECF8091E80082FDA6
:102BE0008DCF8091E80080FF83CF9091F30080919A
:102BF000F2002115310519F08830910550F041E0BF
:102C0000089709F040E08091E8008E778093E80013
:102C10006FCF44914093F1003196215031090196D4
:102C2000E8CF803809F0E8CE8091E800877F809374
:102C3000E800809169028093F10087CE8111DCCE9B
:102C400010916C02123008F0D7CE8091E800877F97
:102C50008093E800109369020E945204112311F03E
:102C600084E005C08091E30087FDFACF81E0809386
:102C7000680242E061EC81E00E94710442E261EC92
:102C800084E00E94710442E261EC82E00E947104DF
:102C900042E260EC83E00E947104AECE80916C024F
:102CA000813009F0A9CE81E0933009F080E0809373
:102CB00067021092E9008091E800877F8093E80026
:102CC0000E94520499CE3F924F925F926F927F92F0
:102CD0008F929F92AF92BF92CF92DF92EF92FF922C
:102CE0000F931F93CF93DF9300D000D00F92CDB7F7
:102CF000DEB78C01FC0183819481892B31F08081C6
:102D0000918189238F3F09F081C50F900F900F901B
:102D10000F900F90DF91CF911F910F91FF90EF9047
:102D2000DF90CF90BF90AF909F908F907F906F90EB
:102D30005F904F903F9008950E941510F82E682FD5
:102D400089819A810E940E0A69817A818F2D0E9461
:102D500008107C01F8018281882309F44AC5970193
:102D600022513F452031310508F016C58FEF93E021
:102D70000E941227FEEEEF0E57E5852E52E0952EAB
:102D8000882381F18091F001877009F4BECFF801AA
:102D90008281882309F4B9CF82E00F900F900F90C1
:102DA0000F900F90DF91CF911F910F91FF90EF90B7
:102DB000DF90CF90BF90AF909F908F907F906F905B
:102DC0005F904F903F900C94720A811424E0920619
:102DD000C9F2C4010E941227811101C0EA943FEF99
:102DE000831A930AE110F1CF1C821B82442443947E
:102DF0004AE0342E74018FEFE81AF80AC4010E94E9
:102E0000122789831A82882309F4BCCF9FEF980F79
:102E1000933000F58A83498292E0890E911CC701A4
:102E20000E9412278B83882309F4ACCFFE013196D0
:102E30007F01F70120812223E9F2213009F049C006
:102E400091818281913041F4F2E0EF0EF11C0E94F9
:102E5000BB0E09C04701EACF923049F422E0E20EEE
:102E6000F11C0E94240E3FEFE31AF30AE2CF9330E5
:102E700031F432E0E30EF11C0E94B20AF4CF943038
:102E800021F08FEFE81AF80AEECF92E0E90EF11C7C
:102E900030E020E0B7016F5F7F4FF7014181805341
:102EA000990B8A30910550F021503109E0F28FE9F9
:102EB0009FE00197F1F700C00000F6CF329EF001CD
:102EC000339EF00D11249C012E0F3F1F842F7B0198
:102ED000E1CFE22FF0E0E754FE4F5490822F869529
:102EE0008695869590E0FC01E755FE4F649027702B
:102EF000712C022E02C0759467940A94E2F7E1E007
:102F00006E227724FC01E756FE4FA490B12C022ECE
:102F100002C0B594A7940A94E2F7F1E0AF22BB2473
:102F2000FC01E757FE4FC490D12C02C0D594C79442
:102F30002A95E2F721E0C222DD246114710419F020
:102F400081EE0E94240EA114B10419F086EE0E94B5
:102F5000240E852D0E94BB0EAB2819F086EE0E9430
:102F6000B20A672819F081EE0E94B20ACD2809F44E
:102F70007ACF8CE26CCF81E00E948E0A0E945B0ABD
:102F800001CF81E00E94660AF9CF82E0F5CF95EF8C
:102F9000E9169CE5F90609F469C008F463C027E264
:102FA00045EE66EEF6EFEF16FCE5FF0609F41DC4EC
:102FB000882309F43CC41092740222E0E2162CE546
:102FC000F20608F44CC136E1E3163CE5F30630F0B6
:102FD000C7018A5F9C45099708F041C10E94901083
:102FE0009093FA018093F90180E1E8168CE5F806E8
:102FF00009F404C108F083C0E8E0EE16ECE5FE0633
:1030000009F4EEC008F04FC024E0E2162CE5F20609
:1030100009F4DEC090F582E0E8168CE5F80609F4C4
:10302000D1C08091F901826093E0E9169CE5F90630
:1030300009F4CBC06091F901F090FA0184E090E0CE
:103040000E9426276F2D82E290E00E9426270E9490
:10305000911398CE27E245EE65EEC7C326E241EE16
:1030600060EEC3C327E245EE64EEBFC326E241EE45
:1030700062EEBBC328E241E0EFCF8091F9018061AD
:10308000E6E0EE16ECE5FE0609F49FC08091F9013A
:103090008860F7E0EF16FCE5FF0608F496C0809123
:1030A000F901806292C08091F9018D7F2CE0E216D7
:1030B0002CE5F20609F489C060F48AE0E8168CE594
:1030C000F80609F497C008F48FC08091F9018E7F4B
:1030D0007CC08091F901877FEEE0EE16ECE5FE06FC
:1030E00009F473C08091F9018B7FFFE0EF16FCE5D6
:1030F000FF0608F46AC08091F9018F7E66C02BEF4D
:10310000E2162CE5F20609F467C068F583E1E816DB
:103110008CE5F80609F47AC090F4E1E1EE16ECE5EE
:10312000FE0609F46FC0F2E1EF16FCE5FF0609F0B8
:1031300081CF0E9491138091F9018F7746C025E1DC
:10314000E2162CE5F20609F469C008F47DC08AEFA6
:10315000E8168CE5F80609F06DCF8091FA018160E0
:103160008093FA0167CF9FEFE9169CE5F90609F411
:1031700051C0A0F48091FA018D7FFDEFEF16FCE5C0
:10318000FF0671F38091FA018E7F2EEFE2162CE597
:10319000F20630F38091FA018360E2CF31E0E3166A
:1031A0003DE5F30609F459C008F444C060E092E03C
:1031B000E9169DE5F90609F03DCF8EE090E00E940A
:1031C000262738CF8091F90181608093F90132CFB1
:1031D0008091F9018460F9CF8091FA018260C0CFBB
:1031E0008091F9018064F1CF0E9491138091F901DF
:1031F0008068EBCF8091F9018C60E7CF8091F90175
:103200008F7DE3CF8091F9018F7BDFCF8091F90132
:10321000837FDBCF8091FA018C7FA2CF8091F9016F
:1032200082FB992790F921E0922790FB82F990FB8D
:1032300083F9CBCF8091FA01982F909591708E7F72
:10324000892B90FB81F98CCF0E9491139091F90109
:10325000892F97FB87F98058B8CF61E0AECF809176
:10326000F301E6E1EE16ECE5FE0609F0EDC28A7A1E
:1032700091E009F490E090939C01811106C089E2ED
:103280000E94C3090E9489097DCD85E3F9CF85E3BA
:10329000D8C28091480280FF1BC08E7F8093480275
:1032A000609148027091490280914A0290914B02CC
:1032B0000E94B41010923202FFEF20E732E0F1508A
:1032C00020403040E1F700C000000E94B90B5ACD09
:1032D00081608093480261E086950E94BF1152CDC3
:1032E0004AEF51E163E072E10E94B8054BCD43E043
:1032F00052E16AEF71E1F8CF44E951E16BE871E125
:10330000F3CF43E751E16FE771E1EECF4BE551E1D8
:1033100067E671E1E9CF47E651E16BE571E1E4CFA2
:103320004EEA51E16DE971E1DFCF61E081E0D5CF97
:1033300065E082E00E940D1225CD68E086E0FACFBC
:1033400064E18FE0F7CF67E185E1F4CF62E289E1E4
:10335000F1CF61E083E2C1CF2BE5E2162DE5F20665
:1033600011F13CE5E3163DE5F30609F09FC28091BB
:10337000FA0182FB882780F991E089270E94C80F13
:1033800095C20E9491138FEF94E3ECE0815090403E
:10339000E040E1F700C000000E94950B0E942A1255
:1033A000F1CC81E0EBCF80E0E9CFC7010E94E609D4
:1033B000D82E8BC22F2D2F70C22E8F2D807F19F00B
:1033C000C29490EFC922DD20C9F0CC2069F080E2E0
:1033D0008E0D883010F081100BC08091F301C82A47
:1033E000C092F3010E9489098E2D0E94240E19C0FB
:1033F0008091F201C82AC092F201F4CF8E2D0E9472
:10340000B20ACC2071F0C09480E28E0D883010F0AA
:1034100081103FC08091F301C822C092F3010E9445
:103420008909292D2850330B2430310520F40E94BE
:10343000AC050E940F0BAA2009F467CC8091F00123
:1034400080FD63CCF80112828595859585950E9453
:103450008E0AC8010E9463168091F00185958595BA
:1034600085950F900F900F900F900F90DF91CF9157
:103470001F910F91FF90EF90DF90CF90BF90AF9092
:103480009F908F907F906F905F904F903F900C94A3
:10349000660A8091F201C822C092F201C0CF3F2D8E
:1034A0003F70B32E8F2D807F803219F0B29480EF61
:1034B000B822882071F081E0881681F1DD20D9F1F1
:1034C000CC2091F1F801858180FF8ECF8F708583AC
:1034D0002BC0DD20B1F09091F4018B2D892BC11010
:1034E00003C00E94A80A9DCFE1E0CE12FACF20913E
:1034F000FA0122FD96CF981709F493CF8093F40137
:1035000090CFC11006C00E9483098B2D0E949D0A96
:1035100088CFF1E0CF1609F484CFF5CFDD2031F06C
:1035200025E02C1508F47DCF8B2DDBCF34E03C1546
:1035300008F477CFEACFCC2041F3F9E38F1209C02A
:103540002FEF37EE83E0215030408040E1F700C09C
:1035500000008E2D0E94B20A64CF8F2D869586952D
:10356000837061F0813009F05CCFC7019370D11096
:1035700002C090E080E00E94800553CFC7019370A5
:10358000D11002C090E080E00E9496054ACF8E2DB7
:10359000DD2029F00E9445070E94630642CF0E9469
:1035A0008A06FACF8F2D837091F5D1103ACF4E2D28
:1035B000429546954770440F440F8E2D8F70042E10
:1035C00001C0880F0A94EAF72E2D2071E4FE07C08F
:1035D0002FE030E001C0220F4A95EAF720953F2DF9
:1035E000369536953370323069F050F44091F501DC
:1035F000313029F0822B84230E94990A12CF842B28
:10360000822BFACF282B8091F5018227F5CF869562
:10361000DD2011F08F2D8170882309F402CF4E2D0B
:10362000429546954770440F440F8E2D8F70042E9F
:1036300001C0880F0A94EAF72E2D2071E4FE07C01E
:103640002FE030E001C0220F4A95EAF720953F2D88
:10365000369536953370323069F050F440917502EA
:10366000313029F0822B84230E94570ADACE842B32
:10367000822BFACF282B809175028227F5CF9F2DC0
:103680009F70F92EDD2029F0892F0E948E0A8E2D41
:1036900028CF8E2D0E949D0A8F2D0E94660AC1CED2
:1036A0008E2DE2EF8E1609F44BC0E81570F0F0EFA6
:1036B0008F1639F121EF8216D9F1DD2009F45CC0B3
:1036C000C11092CE8F2D8F7138C033EF8316E9F180
:1036D00094EF8912F2CFDD2009F443C02F2D2F7112
:1036E000F22E822F0E948E0A8091FA0182FD07C07D
:1036F00038E0F39EC001112483608093F0018F2D88
:103700001CC0DD2081F0E4E0EC1508F48ACE2F2DFA
:103710002F7181E090E001C0880F2A95EAF790911F
:1037200075028927A1CFF5E0FC1508F47ACEEFCF1A
:103730008F2D8F71DD2009F4B0CF0E948E0A71CEDB
:103740008F2D8F71DD20C9F3A8CF80E0DD2009F433
:103750008BCF9F2D9F7181E001C0880F9A95EAF76A
:1037600083CF81E00E94720A81E08C1508F059CE67
:1037700082E00E94720A55CECC2059F0893309F0BC
:10378000E8CE9FEFE7EEF3E09150E040F040E1F744
:10379000DECE8F2D8F7181CFF0E1EF16FFE5FF06B2
:1037A00009F4E9CB21E1E2162FE5F20609F4EDCBAD
:1037B00093EFE9169CE5F90609F450CC08F0E7CB45
:1037C000F8EDEF16FCE5FF0609F444CC29EDE2160E
:1037D0002CE5F20609F44ECC37EDE3163CE5F30692
:1037E00009F0E6CB26E241EE61EEC8010E94D80E58
:1037F000C9CA30E1E3163FE5F30609F4C2CB91E113
:10380000E9169FE5F906A1F682E0BCCB85E0DE0172
:10381000119601900D928A95E1F7F8012281898134
:103820009A81211189CA0E94E609F82E8DCAF6E113
:10383000EF16FCE5FF06D1F580919C01811127CDA3
:1038400089E20E94B6091ECD82722CECE2162CE5AC
:10385000F20609F465CD08F0A7C096ECE9169CE5E0
:10386000F90609F449CD08F076C0F3ECEF16FCE553
:10387000FF0609F435CD08F05DC032ECE3163CE5F7
:10388000F30609F406CD8AE5E8168DE5F80609F495
:1038900088CD08F061CDE114ECE5FE0609F471CDA8
:1038A000FEEDEF16FCE5FF0609F478CDF801828104
:1038B000E080F180882309F478CDC7010E941510BB
:1038C000D82E682FC7010E940E0AB7018D2D0E94C5
:1038D00008100E94FB077C01882EF801D280C58069
:1038E000C2943FE0C3228091F0018770A1F0AD2C1B
:1038F000DD2091F08F2D807F803421F080E28E0DCD
:10390000883048F082E00E94720A8091F00187704E
:10391000AA24A3948111A12C9F2C92942FE092228F
:10392000FBE0F91508F47DCDE92DF0E0E257F84D04
:103930000C94C82694ECE9169CE5F90609F4D7CC5A
:103940004BE851E164E971E1E5ECEE16ECE5FE06C9
:1039500009F4CACC98CFF9ECEF16FCE5FF0609F4A0
:10396000D5CC88F437ECE3163CE5F30609F4C9CC72
:103970004FE751E163E771E198ECE9169CE5F90640
:1039800009F4B2CC80CFEAECEE16ECE5FE0609F4C1
:10399000C2CC4DE951E16EEA71E1FBECEF16FCE5BA
:1039A000FF0609F4A1CC6FCF21EDE2162CE5F2065B
:1039B00009F4C6CCB8F48EECE8168CE5F80609F4E8
:1039C000B7CC08F4B2CCEFECEE16ECE5FE0609F449
:1039D000B4CC6EE089E0F0EDEF16FCE5FF0609F4EB
:1039E000A9CC51CF24EDE2162CE5F20609F4AECCB9
:1039F00078F482EDE8168CE5F80609F4A4CC61E0D1
:103A000088E193EDE9169CE5F90609F466CC3BCF15
:103A1000E5EDEE16ECE5FE0609F49BCCFDE5EF16B0
:103A2000FF0609F4AFC92FCF1F93CF93DF93809187
:103A3000BD01807FA9F48091BA01882389F080912B
:103A4000EF01D091BE016091B8017091B901A091D0
:103A5000BB01B091BC01C62FC72316E0D81304C028
:103A6000DF91CF911F91089590E0109711F0CF3F13
:103A700019F401968770F2CF189F9001199F300DAD
:103A80001124F901E154FE4F41814713F2CF4081E7
:103A90004613EFCF42814111ECCF438154814A1B41
:103AA0005B0B483C510528F78091BD018F70806108
:103AB0008093BD01F901EC53FE4F80818F708061CE
:103AC000808388EB91E00E946316DF91CF911F9174
:103AD0000C94DC09AF92BF92CF92DF92EF92FF92EB
:103AE0000F931F93CF93DF93CDB7DEB761970FB6D8
:103AF000F894DEBF0FBECDBF8C0185E0F801DE017A
:103B00001D9601900D928A95E1F7F801E28088EB0D
:103B1000A82E81E0B82E6091BB017091BC016115A7
:103B2000710509F432C19091B8014091B901892F12
:103B300084238F3F09F429C120813181C380D4803F
:103B4000F090BA01F601E61BF70BFF2009F4E8C07C
:103B50008091BD01582F507FE83CF10508F0ABC0C3
:103B6000511177C0FE2C431321C092131FC0E110E6
:103B70001DC08F7080618093BD01C5010E946316D6
:103B80008091BD01F80185838F2D61960FB6F89461
:103B9000DEBF0FBECDBFDF91CF911F910F91FF9080
:103BA000EF90DF90CF90BF90AF900895CD2829F08F
:103BB000822F83238F3F09F003C180E0F82FF1703B
:103BC000DF2E80FF3CC08091EF014091BE0156E0A6
:103BD000841315C02D873E878D859E850E944410D5
:103BE000292F22952F702230F0F0243018F59F7085
:103BF000F1F0F8019581907FD1F4D12C1EC090E0B6
:103C0000589FF001599FF00D1124E154FE4F61813E
:103C1000361306C06081261303C06281E6120FC00E
:103C200001968770D5CF9F7011F0882331F3805EA5
:103C3000883018F3C8010E946316FD2CA5CFEE2032
:103C400009F4A2CF8091BD0181608093BD01F12C68
:103C50009BCF431306C0921304C0F801EE2009F471
:103C600079C0C8010E945010882309F1EE20F9F0B4
:103C70008091BD01803270F02091B8013091B9017E
:103C800038872F831986DB86CA868C87CE010796F4
:103C90000E94631686E0F801A8EBB1E001900D9256
:103CA0008A95E1F70E94141DFF24F3946DCFC8019B
:103CB0000E946316F9CF51110AC088EB91E00E946F
:103CC000631686E0F50111928A95E9F7C0CF431398
:103CD0000FC092130DC0E1100BC0F8018583C8011D
:103CE0000E94631686E0F50111928A95E9F74CCFA0
:103CF000C8010E9450108823D1F2EE20C1F28091B9
:103D0000BD01803238F22091B8013091B9013A8377
:103D100029831B82DD82CC828E83CE010196B8CFAF
:103D2000E83CF105F8F6FE2CEE2009F243131FC023
:103D300092131DC08091BD0180FD10C0982F907F0F
:103D400069F0F8018583903F31F0982F907F905F64
:103D50008F70892B8583C8010E94631686E0F80165
:103D6000A8EBB1E001900D928A95E1F70DCFC80163
:103D70000E94501081118ECF8091BD01816080938F
:103D8000BD01C8010E946316FFCEEE2009F48FCF5B
:103D9000C8010E945010F82E882309F488CF86E0CD
:103DA000F801A8EBB1E001900D928A95E1F78091BE
:103DB000B8019091B9010E9444100E94141DE4CEF4
:103DC00081E08E25FBCE1F93CF93DF93CDB7DEB777
:103DD00067970FB6F894DEBF0FBECDBF4B8B5C8BE1
:103DE0006D8B7E8B8F8B61111092F2011A8A198A6A
:103DF00085E0FE017396DE011D9601900D928A9575
:103E0000E1F786E0FE013D96DE01179601900D92E6
:103E10008A95E1F7CE0107960E946A1D882389F0F2
:103E200016E08091EF019091BE01891349C0679619
:103E30000FB6F894DEBF0FBECDBFDF91CF911F91BB
:103E4000089586E0FE013796DE01119601900D92ED
:103E50008A95E1F78A859B85892B11F38F81988557
:103E600089238F3FE9F22091BE0130E0C90101961C
:103E7000877099274091EF014817190671F40E9445
:103E800091131092BE011092EF0186E0E8EBF1E091
:103E9000DF011D928A95E9F7C3CF96E0929FD0018A
:103EA000939FB00D1124A154BE4FFE013196019095
:103EB0000D929A95E1F78093BE010E94DC09B0CF84
:103EC000819FC001112481549E4F0E946A1D882346
:103ED00009F4ADCF8091EF0190E0019687709927AA
:103EE0008093EF019ECF1F920F920FB60F92112475
:103EF0002F933F934F935F936F937F938F939F93F2
:103F0000AF93BF93CF93DF93EF93FF93D091E900EB
:103F1000DF708091EC00C82FC17080FDC0E8109266
:103F2000E9008091F000877F8093F00078940E94F0
:103F30009C131092E9008091F00088608093F0005B
:103F4000CD2BCF70C093E900FF91EF91DF91CF911E
:103F5000BF91AF919F918F917F916F915F914F91A1
:103F60003F912F910F900FBE0F901F9018951F92A9
:103F70000F920FB60F9211242F933F934F935F939D
:103F80006F937F938F939F93AF93BF93EF93FF9321
:103F90008091E10082FF09C08091E20082FF05C0AC
:103FA0008091E1008B7F8093E1008091DA0080FFB7
:103FB00024C08091D80080FF20C08091DA008E7FDD
:103FC0008093DA008091D90080FF9BC080E189BD99
:103FD00082E189BD09B400FEFDCF81E080936802D3
:103FE00080915B02811109C00E94D8030E94A30442
:103FF0008091E20084608093E2008091E10080FF84
:1040000017C08091E20080FF13C08091E2008E7F94
:104010008093E2008091E20080618093E2008091D1
:10402000D80080628093D80019BC85E08093680234
:104030008091E10084FF29C08091E20084FF25C0C7
:1040400080E189BD82E189BD89B5982F917080FF9B
:10405000FBCF8091D8008F7D8093D8008091E100C4
:104060008F7E8093E1008091E2008F7E8093E2005A
:104070008091E20081608093E20080916902882350
:1040800009F445C084E0809368028091E10083FFD9
:1040900027C08091E20083FF23C08091E100877FE9
:1040A0008093E10082E0809368021092690280911F
:1040B000E1008E7F8093E1008091E2008E7F80930B
:1040C000E2008091E20080618093E20042E060E0E3
:1040D00080E00E9471048091F00088608093F0007D
:1040E000FF91EF91BF91AF919F918F917F916F91D0
:1040F0005F914F913F912F910F900FBE0F901F90A6
:10410000189519BC1092680210925B0276CF8091CC
:10411000E30087FD93E090936802B7CF78941F92F5
:104120001FB61F9211248F939F93AF93BF938091DB
:10413000540290915502A0915602B09157020196F7
:10414000A11DB11D8093540290935502A093560275
:10415000B0935702BF91AF919F918F911F901FBE57
:104160001F9018951F921FB61F9211248F939F9333
:10417000AF93BF9380915302811113C08091540279
:1041800090915502A0915602B09157024196A11DFF
:10419000B11D8093540290935502A0935602B093A0
:1041A0005702BF91AF919F918F911F901FBE1F909B
:1041B0001895CDB7DEB7AA970FB6F894DEBF0FBE3D
:1041C000CDBF84B7877F84BF0FB6F894A895809140
:1041D0006000886180936000109260000FBE80E8EC
:1041E00090E00FB6F89480936100909361000FBE49
:1041F00085B7806885BF85B7806885BF8FE997E000
:1042000090939301809392010E94D8030E94A3048B
:104210008091E20084608093E2007894809168024B
:104220008823A1F01091E9001F709091EC00892F74
:10423000817090FD80E8182B1092E9008091E800D1
:1042400083FD0E949C131F701093E90082E084BDDF
:1042500093E095BD9AEF97BD80936E000E94771012
:10426000811102C00E94B90F0AE411E0EFE4EE2EC2
:10427000E1E0FE2EF80181918F018F3F11F00E9445
:10428000A107E016F106B1F70FE411E0F801819102
:104290008F018F3F11F00E94A107F1E00D351F073C
:1042A000A9F71092FC011092FB01109215021092D6
:1042B00014021092FE011092FD011092170210924A
:1042C0001602109200021092FF0110921902109231
:1042D0001802109202021092010210921B02109218
:1042E0001A02109204021092030210921D02109200
:1042F0001C020E948613811102C00E942A1282E0D1
:1043000090E00E941227809309020E9490109093DF
:10431000FA018093F9010E9494128FE39CE90197BE
:10432000F1F700C000000E9494128091140280FFF7
:1043300008C06FEF7FEF90E080E00E9444270E946A
:10434000950B83E090E00E9412270E94990A279A19
:104350002F9880910502811133C00E94861381112C
:1043600004C00E942A120E941B1288E090E00E9462
:104370001A27609348027093490280934A029093EF
:104380004B026E7F71F40E941B1288E090E00E9445
:104390001A27609348027093490280934A029093CF
:1043A0004B020E94BE05109232028091480280FFAB
:1043B00004C060E086950E94BF1181E080930502F1
:1043C00080E091E09093500280934F0258E1E52EF7
:1043D000F12C60E4B62E7EE1C72E72E0D72E8091DC
:1043E00068029924939400E112E1853009F4DBC15D
:1043F0000E949412882359F08FB7F8944091540288
:104400005091550260915602709157028FBFA4E1FE
:10441000B2E0EAE0F2E010E000E0702F8D919D91B3
:10442000219131912817390709F4E0C1282739274C
:1044300060E088248394912CA90148215921452BBF
:1044400009F4CEC169A37AA39C012821392191E006
:10445000232B09F490E09BA30E9474058160782FC0
:104460009DA38CA349A15AA16BA18DA10E94E31E1B
:10447000000F111FF801E65FFD4F808191818826B2
:10448000992691828082809132028823D1F1809195
:104490003102E0914802E695E81BE0932D0282305C
:1044A00009F0BBC1F0E0E95BFD4FE4910E2F10E095
:1044B000B0E18B2EBEE09B2E80912E02882361F00E
:1044C00010922E020E94740590932C0280932B026E
:1044D0001092300210922F020E947405E0912B027C
:1044E000F0912C028E1B9F0B8F3F9F4750F4E00FE3
:1044F000F11FF0932C02E0932B028BE292E0F40187
:10450000099586E0E5E2F2E0DE01119601900D9258
:104510008A95E1F790902702809028021091290255
:1045200000912A021092270210922802109229026A
:1045300010922A02892D882909F448C0809123020B
:10454000909124020E9465059C0190911F0299237D
:1045500009F4C1C323333105C8F19F3F19F09F5FB0
:1045600090931F02992059F00E9425079FEF19147C
:104570000CF491E0899F802D1124809327028820DC
:1045800059F00E9425079FEF18140CF491E0899FC1
:10459000802D112480932802309127023323B1F01B
:1045A00020912802222391F045EB3403C00111240D
:1045B000992309F48CC19093270245EB24039001C1
:1045C0001124332309F487C130932802812F802BD3
:1045D00009F448C080912102909122020E94650551
:1045E0009C0190911E02992309F470C32536310570
:1045F000C8F19F3F19F09F5F90931E02112359F05D
:104600000E9403079FEF11160CF491E0899F802D03
:10461000112480932902002359F00E9403079FEF81
:1046200010160CF491E0899F802D112480932A02AA
:10463000309129023323B1F020912A02222391F0F4
:1046400045EB3403C0011124992309F448C1909328
:10465000290245EB240390011124332309F443C1BB
:1046600030932A028091270290912802892B909101
:104670002902892B90912A02892B11F00E9463064E
:1046800086E0FE013196A5E2B2E001900D928A9596
:10469000E1F70E94AC0590910802891731F00E9461
:1046A000AC05809308020E940F0B80916802843051
:1046B00009F095CE83E08093E9008091E80082FFC5
:1046C0008ECE8091E80090E085FF06C00E94F7033F
:1046D000882309F40CC191E08091E8008B778093E6
:1046E000E800992309F47BCEE981E150E33108F039
:1046F0009BC1F0E0E656F84D0C94C8268091680204
:10470000843009F440C080E00E940F0B1092320206
:1047100080910702811116C0909207028091480291
:10472000982F9170909306028E7F809348029FEF9E
:10473000E0E7F2E09150E040F040E1F700C0000017
:104740000E94B90B109253020FB6F894A895E0920C
:1047500060000FBEB092600083B7817F846083BF2A
:1047600083B7816083BF7894889583B78E7F83BF3A
:104770000FB6F894A89580916000886180936000DE
:10478000109260000FBE80916702882361F00E9442
:104790009412E4E1F2E081919191892B09F077C2C2
:1047A000CE16DF06C1F780916802853009F4A6CFE6
:1047B0000E9491130E94AC050E940F0B10920702F9
:1047C00080910602882349F080914802816080939D
:1047D000480260E086950E94BF110E949E1008CE9C
:1047E0006F5F880C991C6E3009F026CE0F5F1F4F4B
:1047F0000530110509F011CE8FEF8EA38FA318A6F7
:104800000E9474058160782F9AA789A74EA15FA1A5
:1048100068A58AA50E94E31E36CE863059F4F0E0E2
:10482000EC5BFD4FE4910E2F10E0A0E08A2EAEE08D
:104830009A2E42CE893061F4E695F0E0EF5BFD4FB1
:10484000E4910E2F10E0FCE68F2EFDE09F2E34CE7B
:104850008F3061F4E695F0E0E25CFD4FE4910E2FBD
:1048600010E0EEEF8E2EECE09E2E26CE853159F430
:10487000F0E0E55CFD4FE4910E2F10E070EB872E29
:104880007CE0972E19CE08E210E047E2842E4CE03F
:10489000942E883109F410CE833249F4E9E3F2E032
:1048A0000591149167EA862E6DE0962E05CE04EFF1
:1048B00011E05EEE852E5BE0952E843209F4FCCD8E
:1048C00000ED17E03DEB832E35E0932EF5CD81E032
:1048D0008093270272CE81E08093280277CE81E018
:1048E00080932902B6CE81E080932A02BBCE00E2FB
:1048F00010E0CE0101964C018091E80085FD0AC0D0
:104900008091E8008B778093E8000E94F70388236A
:1049100099F3E1CE8091F100F40181934F010150B0
:10492000110951F7D8CE1A8289E08B831AC08A8187
:10493000823009F4C2C18330D9F1813009F074C0EA
:104940002FB7F894609154027091550280915602ED
:10495000909157022FBF0E94CE266B837C838D835C
:104960009E8380916802843009F039CD1091E9006E
:104970001F709091EC00892F817090FD80E8182BBA
:1049800082E08093E9008091E80080FF0DC050E054
:1049900040E060E270E0CE0101960E942804809120
:1049A000E8008E778093E8001F701093E90017CD20
:1049B00080911402909115029827892798279C834B
:1049C0008B83809116029091170298278927982748
:1049D0009E838D83809118029091190298278927D0
:1049E000982798878F8380911A0290911B029827AD
:1049F000892798279A87898780911C0290911D02A8
:104A00009827892798279C878B87ABCF8A8182300C
:104A100059F46B817C818D819E810E94CE2686E235
:104A200090E00E9426279DCF8FEF89839ACF4C81FB
:104A30006B818A810E94E20F9827892798279E839D
:104A40008D838FCF8D809E809824892498248A819D
:104A50000B81FCE10F9F800111242CE8829F000D47
:104A6000111D11248C8190E0880F991F080F191FC8
:104A7000692DC80187960E942627682DC80188964F
:104A8000D0CF0E944C0F6DCF8A818138C1F060F485
:104A9000803809F066CF20E04B8160914A02809116
:104AA00049020E94C6105DCF823859F1833809F05F
:104AB00058CF20E040914B026C818B81F2CF60E0B7
:104AC0008B810E94BF119B8180914802911111C07E
:104AD0008E7F80934802109232024FEF80E792E07F
:104AE000415080409040E1F700C000000E94B90BA7
:104AF00038CF81608093480260E086950E94BF11A4
:104B000030CF8B8180934C022CCF8A81813899F0F1
:104B100030F4803809F025CF80914B0206CF8238DF
:104B200091F0833809F01DCF809149028B838091E9
:104B30004A028C8316CF8091480280FF02C086957E
:104B4000F4CE80E0F2CE80914C02EFCE609148022C
:104B50007091490280914A0290914B020E94B410D8
:104B600000CF80E18A83FDCE81E08A8389EADDCEB1
:104B70000A811B81102701271027FE0131963F0172
:104B80008C80CF01880D911D4C01C801895A9D4F21
:104B90008614970409F4E5CE093AE1E01E0750F4C3
:104BA0000E941227F30184830F5F1F4FFFEF6F1ADC
:104BB0007F0AEBCFF3011482F7CF0A811B81102704
:104BC00001271027CE0101963C018C80800E912E8A
:104BD000911CC801895A9D4F8016910609F4C1CED7
:104BE000093AE1E01E0720F4F30164810E942627C0
:104BF000FFEF6F1A7F0A0F5F1F4FEBCF0E943C0F32
:104C0000B0CE84E0AFCF0A811B8110270127102787
:104C1000CE0101963C018C80FC01E80DF11D4F0195
:104C2000C80187966814790409F49BCE0033F2E03A
:104C30001F0750F40E941227F30184830F5F1F4F58
:104C4000FFEF6F1A7F0AECCFF3011482F7CF0A81CE
:104C50001B81102701271027CE0101963C018C8073
:104C6000800E912E911CC80187960815190509F42C
:104C700078CE0033E2E01E0720F4F30164810E9445
:104C80002627FFEF6F1A7F0A0F5F1F4FECCF09BD7A
:104C900019BD09B400FEFDCF8091D8008F7D8093AF
:104CA000D8008091E00082608093E0008091E00075
:104CB00081FDFCCF0E94911376CD86E290E00E94A8
:104CC00012271B821C821D828E834BCE2D323140D7
:104CD00008F091CCC7CC2D32314008F040CC76CCD6
:104CE00087FB082E062687FD819567FD61950E944A
:104CF00006270EF4919507FC81950895AA1BBB1B0E
:104D000051E107C0AA1FBB1FA617B70710F0A61BCB
:104D1000B70B881F991F5A95A9F780959095BC01EC
:104D2000CD01089597FB072E16F4009407D077FD68
:104D300009D00E947E2607FC05D03EF4909581950F
:104D40009F4F0895709561957F4F0895A1E21A2EA7
:104D5000AA1BBB1BFD010DC0AA1FBB1FEE1FFF1F1F
:104D6000A217B307E407F50720F0A21BB30BE40B6F
:104D7000F50B661F771F881F991F1A9469F76095B6
:104D80007095809590959B01AC01BD01CF01089570
:104D9000EE0FFF1F0590F491E02D099469279627E7
:104DA000692778278727782708950E94DD263323EF
:104DB00012F48A1B9B0B0C94EE26A29FB001B39FAA
:104DC000C001A39F700D811D1124911DB29F700D14
:104DD000811D1124911D08950E94DD26B7FF0895BD
:104DE000821B930B08950E94DD26A59F900DB49F12
:104DF000900DA49F800D911D11240895B7FF0C9470
:104E0000F3260E94F326821B930B0895991B79E0E9
:104E100004C0991F961708F0961B881F7A95C9F74A
:104E200080950895F999FECF92BD81BDF89A992792
:104E300080B50895A6E1B0E044E050E00C944C2722
:104E4000A8E1B0E042E050E00C944C27262FF999FD
:104E5000FECF92BD81BDF89A019700B4021639F0D9
:104E60001FBA20BD0FB6F894FA9AF99A0FBE0895AA
:104E70000396272F0E9427270E942627252F0E946E
:104E80002727242F0C9427270196272F0E942727B6
:104E90000C942627DC01CB01FC01F999FECF06C05A
:104EA000F2BDE1BDF89A319600B40D9241505040E8
:104EB000B8F70895FC014150504030F001900616BB
:104EC000D1F73197CF010895882799270895FB01DD
:104ED000DC0104C08D910190801921F441505040B3
:104EE000C8F7881B990B0895F894FFCF62106210E1
:104EF0006B106B106D106B106B106B1062106210EA
:104F000072106B106B1072108114A914FC14A91488
:104F1000FC14DC141415FC1411161E16DA19DA1917
:104F20004F1A4F1AAD1AC71A111A111AD21A3F1B6B
:104F3000501B501B93249724062517252225412515
:104F400044258525A62514251425B125B425B82585
:0A4F5000DD25FE2501260326272695
:104F5A006205680B470B430B3F0B01191A1B1C1DFB
:104F6A001E1F20212201020101818283E200E90041
:104F7A00EA00B500B600B700CD008301CC008A0173
:104F8A009201940121022302240225022602270209
:104F9A002A02B300B4006F007000313233F0F1F42A
:104FAA00F7F5F667663635349796949593000102BD
:104FBA000202020606060909090909090F0F0F0F5D
:104FCA000F0F151515181919191919191919191968
:104FDA00232440227B49012701AC009206AB06CB71
:024FEA000600BF
:00000001FF
